Archive member included to satisfy reference by file (symbol)

/home/adam/eclipse/plugins/fr.ac6.mcu.externaltools.arm-none.linux64_1.13.1.201703061524/tools/compiler/bin/../lib/gcc/arm-none-eabi/5.4.1/../../../../arm-none-eabi/lib/armv7e-m/fpu/fpv5-sp-d16/libc_nano.a(lib_a-exit.o)
                              /home/adam/eclipse/plugins/fr.ac6.mcu.externaltools.arm-none.linux64_1.13.1.201703061524/tools/compiler/bin/../lib/gcc/arm-none-eabi/5.4.1/../../../../arm-none-eabi/lib/armv7e-m/fpu/fpv5-sp-d16/crt0.o (exit)
/home/adam/eclipse/plugins/fr.ac6.mcu.externaltools.arm-none.linux64_1.13.1.201703061524/tools/compiler/bin/../lib/gcc/arm-none-eabi/5.4.1/../../../../arm-none-eabi/lib/armv7e-m/fpu/fpv5-sp-d16/libc_nano.a(lib_a-impure.o)
                              /home/adam/eclipse/plugins/fr.ac6.mcu.externaltools.arm-none.linux64_1.13.1.201703061524/tools/compiler/bin/../lib/gcc/arm-none-eabi/5.4.1/../../../../arm-none-eabi/lib/armv7e-m/fpu/fpv5-sp-d16/libc_nano.a(lib_a-exit.o) (_global_impure_ptr)
/home/adam/eclipse/plugins/fr.ac6.mcu.externaltools.arm-none.linux64_1.13.1.201703061524/tools/compiler/bin/../lib/gcc/arm-none-eabi/5.4.1/../../../../arm-none-eabi/lib/armv7e-m/fpu/fpv5-sp-d16/libc_nano.a(lib_a-init.o)
                              /home/adam/eclipse/plugins/fr.ac6.mcu.externaltools.arm-none.linux64_1.13.1.201703061524/tools/compiler/bin/../lib/gcc/arm-none-eabi/5.4.1/../../../../arm-none-eabi/lib/armv7e-m/fpu/fpv5-sp-d16/crt0.o (__libc_init_array)
/home/adam/eclipse/plugins/fr.ac6.mcu.externaltools.arm-none.linux64_1.13.1.201703061524/tools/compiler/bin/../lib/gcc/arm-none-eabi/5.4.1/../../../../arm-none-eabi/lib/armv7e-m/fpu/fpv5-sp-d16/libc_nano.a(lib_a-malloc.o)
                              Middlewares/ST/STM32_USB_Device_Library/Class/HID/Src/usbd_hid.o (malloc)
/home/adam/eclipse/plugins/fr.ac6.mcu.externaltools.arm-none.linux64_1.13.1.201703061524/tools/compiler/bin/../lib/gcc/arm-none-eabi/5.4.1/../../../../arm-none-eabi/lib/armv7e-m/fpu/fpv5-sp-d16/libc_nano.a(lib_a-memset.o)
                              /home/adam/eclipse/plugins/fr.ac6.mcu.externaltools.arm-none.linux64_1.13.1.201703061524/tools/compiler/bin/../lib/gcc/arm-none-eabi/5.4.1/../../../../arm-none-eabi/lib/armv7e-m/fpu/fpv5-sp-d16/crt0.o (memset)
/home/adam/eclipse/plugins/fr.ac6.mcu.externaltools.arm-none.linux64_1.13.1.201703061524/tools/compiler/bin/../lib/gcc/arm-none-eabi/5.4.1/../../../../arm-none-eabi/lib/armv7e-m/fpu/fpv5-sp-d16/libc_nano.a(lib_a-nano-freer.o)
                              /home/adam/eclipse/plugins/fr.ac6.mcu.externaltools.arm-none.linux64_1.13.1.201703061524/tools/compiler/bin/../lib/gcc/arm-none-eabi/5.4.1/../../../../arm-none-eabi/lib/armv7e-m/fpu/fpv5-sp-d16/libc_nano.a(lib_a-malloc.o) (_free_r)
/home/adam/eclipse/plugins/fr.ac6.mcu.externaltools.arm-none.linux64_1.13.1.201703061524/tools/compiler/bin/../lib/gcc/arm-none-eabi/5.4.1/../../../../arm-none-eabi/lib/armv7e-m/fpu/fpv5-sp-d16/libc_nano.a(lib_a-nano-mallocr.o)
                              /home/adam/eclipse/plugins/fr.ac6.mcu.externaltools.arm-none.linux64_1.13.1.201703061524/tools/compiler/bin/../lib/gcc/arm-none-eabi/5.4.1/../../../../arm-none-eabi/lib/armv7e-m/fpu/fpv5-sp-d16/libc_nano.a(lib_a-malloc.o) (_malloc_r)
/home/adam/eclipse/plugins/fr.ac6.mcu.externaltools.arm-none.linux64_1.13.1.201703061524/tools/compiler/bin/../lib/gcc/arm-none-eabi/5.4.1/../../../../arm-none-eabi/lib/armv7e-m/fpu/fpv5-sp-d16/libc_nano.a(lib_a-sbrkr.o)
                              /home/adam/eclipse/plugins/fr.ac6.mcu.externaltools.arm-none.linux64_1.13.1.201703061524/tools/compiler/bin/../lib/gcc/arm-none-eabi/5.4.1/../../../../arm-none-eabi/lib/armv7e-m/fpu/fpv5-sp-d16/libc_nano.a(lib_a-nano-mallocr.o) (_sbrk_r)
/home/adam/eclipse/plugins/fr.ac6.mcu.externaltools.arm-none.linux64_1.13.1.201703061524/tools/compiler/bin/../lib/gcc/arm-none-eabi/5.4.1/../../../../arm-none-eabi/lib/armv7e-m/fpu/fpv5-sp-d16/libc_nano.a(lib_a-strcpy.o)
                              Src/main.o (strcpy)
/home/adam/eclipse/plugins/fr.ac6.mcu.externaltools.arm-none.linux64_1.13.1.201703061524/tools/compiler/bin/../lib/gcc/arm-none-eabi/5.4.1/../../../../arm-none-eabi/lib/armv7e-m/fpu/fpv5-sp-d16/libc_nano.a(lib_a-strlen.o)
                              Src/main.o (strlen)
/home/adam/eclipse/plugins/fr.ac6.mcu.externaltools.arm-none.linux64_1.13.1.201703061524/tools/compiler/bin/../lib/gcc/arm-none-eabi/5.4.1/../../../../arm-none-eabi/lib/armv7e-m/fpu/fpv5-sp-d16/libc_nano.a(lib_a-mlock.o)
                              /home/adam/eclipse/plugins/fr.ac6.mcu.externaltools.arm-none.linux64_1.13.1.201703061524/tools/compiler/bin/../lib/gcc/arm-none-eabi/5.4.1/../../../../arm-none-eabi/lib/armv7e-m/fpu/fpv5-sp-d16/libc_nano.a(lib_a-nano-freer.o) (__malloc_lock)
/home/adam/eclipse/plugins/fr.ac6.mcu.externaltools.arm-none.linux64_1.13.1.201703061524/tools/compiler/bin/../lib/gcc/arm-none-eabi/5.4.1/../../../../arm-none-eabi/lib/armv7e-m/fpu/fpv5-sp-d16/libc_nano.a(lib_a-reent.o)
                              /home/adam/eclipse/plugins/fr.ac6.mcu.externaltools.arm-none.linux64_1.13.1.201703061524/tools/compiler/bin/../lib/gcc/arm-none-eabi/5.4.1/../../../../arm-none-eabi/lib/armv7e-m/fpu/fpv5-sp-d16/libc_nano.a(lib_a-sbrkr.o) (errno)
/home/adam/eclipse/plugins/fr.ac6.mcu.externaltools.arm-none.linux64_1.13.1.201703061524/tools/compiler/bin/../lib/gcc/arm-none-eabi/5.4.1/../../../../arm-none-eabi/lib/armv7e-m/fpu/fpv5-sp-d16/libnosys.a(sbrk.o)
                              /home/adam/eclipse/plugins/fr.ac6.mcu.externaltools.arm-none.linux64_1.13.1.201703061524/tools/compiler/bin/../lib/gcc/arm-none-eabi/5.4.1/../../../../arm-none-eabi/lib/armv7e-m/fpu/fpv5-sp-d16/libc_nano.a(lib_a-sbrkr.o) (_sbrk)
/home/adam/eclipse/plugins/fr.ac6.mcu.externaltools.arm-none.linux64_1.13.1.201703061524/tools/compiler/bin/../lib/gcc/arm-none-eabi/5.4.1/../../../../arm-none-eabi/lib/armv7e-m/fpu/fpv5-sp-d16/libnosys.a(_exit.o)
                              /home/adam/eclipse/plugins/fr.ac6.mcu.externaltools.arm-none.linux64_1.13.1.201703061524/tools/compiler/bin/../lib/gcc/arm-none-eabi/5.4.1/../../../../arm-none-eabi/lib/armv7e-m/fpu/fpv5-sp-d16/libc_nano.a(lib_a-exit.o) (_exit)

Allocating common symbols
Common symbol       size              file

info                0x32              Src/main.o
hUsbDeviceFS        0x224             Src/usb_device.o
errno               0x4               /home/adam/eclipse/plugins/fr.ac6.mcu.externaltools.arm-none.linux64_1.13.1.201703061524/tools/compiler/bin/../lib/gcc/arm-none-eabi/5.4.1/../../../../arm-none-eabi/lib/armv7e-m/fpu/fpv5-sp-d16/libc_nano.a(lib_a-reent.o)
hi2c1               0x4c              Src/i2c.o
hpcd_USB_OTG_FS     0x3c0             Src/usbd_conf.o
hdma_dcmi           0x60              Src/dcmi.o
uwTick              0x4               Drivers/STM32F7xx_HAL_Driver/Src/stm32f7xx_hal.o
pFlash              0x1c              Drivers/STM32F7xx_HAL_Driver/Src/stm32f7xx_hal_flash.o
hdcmi               0x50              Src/dcmi.o
huart1              0x70              Src/usart.o
htim1               0x3c              Src/stm32f7xx_hal_timebase_TIM.o
hdma2d              0x40              Src/dma2d.o
huart2              0x70              Src/usart.o
hsdram1             0x34              Src/fmc.o
USBD_StrDesc        0x200             Src/usbd_desc.o

Discarded input sections

 .text          0x00000000        0x0 /home/adam/eclipse/plugins/fr.ac6.mcu.externaltools.arm-none.linux64_1.13.1.201703061524/tools/compiler/bin/../lib/gcc/arm-none-eabi/5.4.1/armv7e-m/fpu/fpv5-sp-d16/crti.o
 .data          0x00000000        0x0 /home/adam/eclipse/plugins/fr.ac6.mcu.externaltools.arm-none.linux64_1.13.1.201703061524/tools/compiler/bin/../lib/gcc/arm-none-eabi/5.4.1/armv7e-m/fpu/fpv5-sp-d16/crti.o
 .bss           0x00000000        0x0 /home/adam/eclipse/plugins/fr.ac6.mcu.externaltools.arm-none.linux64_1.13.1.201703061524/tools/compiler/bin/../lib/gcc/arm-none-eabi/5.4.1/armv7e-m/fpu/fpv5-sp-d16/crti.o
 .data          0x00000000        0x4 /home/adam/eclipse/plugins/fr.ac6.mcu.externaltools.arm-none.linux64_1.13.1.201703061524/tools/compiler/bin/../lib/gcc/arm-none-eabi/5.4.1/armv7e-m/fpu/fpv5-sp-d16/crtbegin.o
 .text          0x00000000       0x74 /home/adam/eclipse/plugins/fr.ac6.mcu.externaltools.arm-none.linux64_1.13.1.201703061524/tools/compiler/bin/../lib/gcc/arm-none-eabi/5.4.1/../../../../arm-none-eabi/lib/armv7e-m/fpu/fpv5-sp-d16/crt0.o
 .data          0x00000000        0x0 /home/adam/eclipse/plugins/fr.ac6.mcu.externaltools.arm-none.linux64_1.13.1.201703061524/tools/compiler/bin/../lib/gcc/arm-none-eabi/5.4.1/../../../../arm-none-eabi/lib/armv7e-m/fpu/fpv5-sp-d16/crt0.o
 .bss           0x00000000        0x0 /home/adam/eclipse/plugins/fr.ac6.mcu.externaltools.arm-none.linux64_1.13.1.201703061524/tools/compiler/bin/../lib/gcc/arm-none-eabi/5.4.1/../../../../arm-none-eabi/lib/armv7e-m/fpu/fpv5-sp-d16/crt0.o
 .ARM.extab     0x00000000        0x0 /home/adam/eclipse/plugins/fr.ac6.mcu.externaltools.arm-none.linux64_1.13.1.201703061524/tools/compiler/bin/../lib/gcc/arm-none-eabi/5.4.1/../../../../arm-none-eabi/lib/armv7e-m/fpu/fpv5-sp-d16/crt0.o
 .ARM.exidx     0x00000000        0x8 /home/adam/eclipse/plugins/fr.ac6.mcu.externaltools.arm-none.linux64_1.13.1.201703061524/tools/compiler/bin/../lib/gcc/arm-none-eabi/5.4.1/../../../../arm-none-eabi/lib/armv7e-m/fpu/fpv5-sp-d16/crt0.o
 .ARM.attributes
                0x00000000       0x20 /home/adam/eclipse/plugins/fr.ac6.mcu.externaltools.arm-none.linux64_1.13.1.201703061524/tools/compiler/bin/../lib/gcc/arm-none-eabi/5.4.1/../../../../arm-none-eabi/lib/armv7e-m/fpu/fpv5-sp-d16/crt0.o
 .text          0x00000000       0x14 Drivers/CMSIS/Device/ST/STM32F7xx/Source/Templates/gcc/startup_stm32f746xx.o
 .data          0x00000000        0x0 Drivers/CMSIS/Device/ST/STM32F7xx/Source/Templates/gcc/startup_stm32f746xx.o
 .bss           0x00000000        0x0 Drivers/CMSIS/Device/ST/STM32F7xx/Source/Templates/gcc/startup_stm32f746xx.o
 .group         0x00000000        0x8 Drivers/STM32F7xx_HAL_Driver/Src/stm32f7xx_hal.o
 .group         0x00000000        0x8 Drivers/STM32F7xx_HAL_Driver/Src/stm32f7xx_hal.o
 .group         0x00000000        0x8 Drivers/STM32F7xx_HAL_Driver/Src/stm32f7xx_hal.o
 .group         0x00000000        0x8 Drivers/STM32F7xx_HAL_Driver/Src/stm32f7xx_hal.o
Memory Configuration

Name             Origin             Length             Attributes
RAM              0x20000000         0x00050000         xrw
FLASH            0x08000000         0x00080000         xr
*default*        0x00000000         0xffffffff

Linker script and memory map

LOAD /home/adam/eclipse/plugins/fr.ac6.mcu.externaltools.arm-none.linux64_1.13.1.201703061524/tools/compiler/bin/../lib/gcc/arm-none-eabi/5.4.1/armv7e-m/fpu/fpv5-sp-d16/crti.o
LOAD /home/adam/eclipse/plugins/fr.ac6.mcu.externaltools.arm-none.linux64_1.13.1.201703061524/tools/compiler/bin/../lib/gcc/arm-none-eabi/5.4.1/armv7e-m/fpu/fpv5-sp-d16/crtbegin.o
LOAD /home/adam/eclipse/plugins/fr.ac6.mcu.externaltools.arm-none.linux64_1.13.1.201703061524/tools/compiler/bin/../lib/gcc/arm-none-eabi/5.4.1/../../../../arm-none-eabi/lib/armv7e-m/fpu/fpv5-sp-d16/crt0.o
LOAD /home/adam/eclipse/plugins/fr.ac6.mcu.externaltools.arm-none.linux64_1.13.1.201703061524/tools/compiler/bin/../lib/gcc/arm-none-eabi/5.4.1/../../../../arm-none-eabi/lib/armv7e-m/fpu/fpv5-sp-d16/libm.a
LOAD Drivers/CMSIS/Device/ST/STM32F7xx/Source/Templates/gcc/startup_stm32f746xx.o
LOAD Drivers/STM32F7xx_HAL_Driver/Src/stm32f7xx_hal.o
LOAD Drivers/STM32F7xx_HAL_Driver/Src/stm32f7xx_hal_cortex.o
LOAD Drivers/STM32F7xx_HAL_Driver/Src/stm32f7xx_hal_dcmi.o
LOAD Drivers/STM32F7xx_HAL_Driver/Src/stm32f7xx_hal_dcmi_ex.o
LOAD Drivers/STM32F7xx_HAL_Driver/Src/stm32f7xx_hal_dma.o
LOAD Drivers/STM32F7xx_HAL_Driver/Src/stm32f7xx_hal_dma2d.o
LOAD Drivers/STM32F7xx_HAL_Driver/Src/stm32f7xx_hal_dma_ex.o
LOAD Drivers/STM32F7xx_HAL_Driver/Src/stm32f7xx_hal_flash.o
LOAD Drivers/STM32F7xx_HAL_Driver/Src/stm32f7xx_hal_flash_ex.o
LOAD Drivers/STM32F7xx_HAL_Driver/Src/stm32f7xx_hal_gpio.o
LOAD Drivers/STM32F7xx_HAL_Driver/Src/stm32f7xx_hal_i2c.o
LOAD Drivers/STM32F7xx_HAL_Driver/Src/stm32f7xx_hal_i2c_ex.o
LOAD Drivers/STM32F7xx_HAL_Driver/Src/stm32f7xx_hal_pcd.o
LOAD Drivers/STM32F7xx_HAL_Driver/Src/stm32f7xx_hal_pcd_ex.o
LOAD Drivers/STM32F7xx_HAL_Driver/Src/stm32f7xx_hal_pwr.o
LOAD Drivers/STM32F7xx_HAL_Driver/Src/stm32f7xx_hal_pwr_ex.o
LOAD Drivers/STM32F7xx_HAL_Driver/Src/stm32f7xx_hal_rcc.o
LOAD Drivers/STM32F7xx_HAL_Driver/Src/stm32f7xx_hal_rcc_ex.o
LOAD Drivers/STM32F7xx_HAL_Driver/Src/stm32f7xx_hal_sdram.o
LOAD Drivers/STM32F7xx_HAL_Driver/Src/stm32f7xx_hal_tim.o
LOAD Drivers/STM32F7xx_HAL_Driver/Src/stm32f7xx_hal_tim_ex.o
LOAD Drivers/STM32F7xx_HAL_Driver/Src/stm32f7xx_hal_uart.o
LOAD Drivers/STM32F7xx_HAL_Driver/Src/stm32f7xx_ll_fmc.o
LOAD Drivers/STM32F7xx_HAL_Driver/Src/stm32f7xx_ll_usb.o
LOAD Middlewares/ST/STM32_USB_Device_Library/Class/HID/Src/usbd_hid.o
LOAD Middlewares/ST/STM32_USB_Device_Library/Core/Src/usbd_core.o
LOAD Middlewares/ST/STM32_USB_Device_Library/Core/Src/usbd_ctlreq.o
LOAD Middlewares/ST/STM32_USB_Device_Library/Core/Src/usbd_ioreq.o
LOAD Src/dcmi.o
LOAD Src/dma.o
LOAD Src/dma2d.o
LOAD Src/fmc.o
LOAD Src/gpio.o
LOAD Src/i2c.o
LOAD Src/main.o
LOAD Src/stm32f7xx_hal_msp.o
LOAD Src/stm32f7xx_hal_timebase_TIM.o
LOAD Src/stm32f7xx_it.o
LOAD Src/system_stm32f7xx.o
LOAD Src/usart.o
LOAD Src/usb_device.o
LOAD Src/usbd_conf.o
LOAD Src/usbd_desc.o
START GROUP
LOAD /home/adam/eclipse/plugins/fr.ac6.mcu.externaltools.arm-none.linux64_1.13.1.201703061524/tools/compiler/bin/../lib/gcc/arm-none-eabi/5.4.1/armv7e-m/fpu/fpv5-sp-d16/libgcc.a
LOAD /home/adam/eclipse/plugins/fr.ac6.mcu.externaltools.arm-none.linux64_1.13.1.201703061524/tools/compiler/bin/../lib/gcc/arm-none-eabi/5.4.1/../../../../arm-none-eabi/lib/armv7e-m/fpu/fpv5-sp-d16/libc_nano.a
END GROUP
START GROUP
LOAD /home/adam/eclipse/plugins/fr.ac6.mcu.externaltools.arm-none.linux64_1.13.1.201703061524/tools/compiler/bin/../lib/gcc/arm-none-eabi/5.4.1/armv7e-m/fpu/fpv5-sp-d16/libgcc.a
LOAD /home/adam/eclipse/plugins/fr.ac6.mcu.externaltools.arm-none.linux64_1.13.1.201703061524/tools/compiler/bin/../lib/gcc/arm-none-eabi/5.4.1/../../../../arm-none-eabi/lib/armv7e-m/fpu/fpv5-sp-d16/libc_nano.a
LOAD /home/adam/eclipse/plugins/fr.ac6.mcu.externaltools.arm-none.linux64_1.13.1.201703061524/tools/compiler/bin/../lib/gcc/arm-none-eabi/5.4.1/../../../../arm-none-eabi/lib/armv7e-m/fpu/fpv5-sp-d16/libnosys.a
END GROUP
START GROUP
LOAD /home/adam/eclipse/plugins/fr.ac6.mcu.externaltools.arm-none.linux64_1.13.1.201703061524/tools/compiler/bin/../lib/gcc/arm-none-eabi/5.4.1/armv7e-m/fpu/fpv5-sp-d16/libgcc.a
LOAD /home/adam/eclipse/plugins/fr.ac6.mcu.externaltools.arm-none.linux64_1.13.1.201703061524/tools/compiler/bin/../lib/gcc/arm-none-eabi/5.4.1/../../../../arm-none-eabi/lib/armv7e-m/fpu/fpv5-sp-d16/libc_nano.a
LOAD /home/adam/eclipse/plugins/fr.ac6.mcu.externaltools.arm-none.linux64_1.13.1.201703061524/tools/compiler/bin/../lib/gcc/arm-none-eabi/5.4.1/../../../../arm-none-eabi/lib/armv7e-m/fpu/fpv5-sp-d16/libnosys.a
END GROUP
LOAD /home/adam/eclipse/plugins/fr.ac6.mcu.externaltools.arm-none.linux64_1.13.1.201703061524/tools/compiler/bin/../lib/gcc/arm-none-eabi/5.4.1/armv7e-m/fpu/fpv5-sp-d16/crtend.o
LOAD /home/adam/eclipse/plugins/fr.ac6.mcu.externaltools.arm-none.linux64_1.13.1.201703061524/tools/compiler/bin/../lib/gcc/arm-none-eabi/5.4.1/armv7e-m/fpu/fpv5-sp-d16/crtn.o
                0x20050000                _estack = 0x20050000
                0x00000200                _Min_Heap_Size = 0x200
                0x00000400                _Min_Stack_Size = 0x400

.isr_vector     0x08000000      0x1c8
                0x08000000                . = ALIGN (0x4)
 *(.isr_vector)
 .isr_vector    0x08000000      0x1c8 Drivers/CMSIS/Device/ST/STM32F7xx/Source/Templates/gcc/startup_stm32f746xx.o
                0x08000000                g_pfnVectors
                0x080001c8                . = ALIGN (0x4)

.text           0x080001c8     0x5138
                0x080001c8                . = ALIGN (0x4)
 *(.text)
 .text          0x080001c8       0x5c /home/adam/eclipse/plugins/fr.ac6.mcu.externaltools.arm-none.linux64_1.13.1.201703061524/tools/compiler/bin/../lib/gcc/arm-none-eabi/5.4.1/armv7e-m/fpu/fpv5-sp-d16/crtbegin.o
 .text          0x08000224       0x10 /home/adam/eclipse/plugins/fr.ac6.mcu.externaltools.arm-none.linux64_1.13.1.201703061524/tools/compiler/bin/../lib/gcc/arm-none-eabi/5.4.1/../../../../arm-none-eabi/lib/armv7e-m/fpu/fpv5-sp-d16/libc_nano.a(lib_a-strlen.o)
                0x08000224                strlen
 *(.text*)
 .text.Reset_Handler
                0x08000234       0x50 Drivers/CMSIS/Device/ST/STM32F7xx/Source/Templates/gcc/startup_stm32f746xx.o
                0x08000234                Reset_Handler
 .text.Default_Handler
                0x08000284        0x2 Drivers/CMSIS/Device/ST/STM32F7xx/Source/Templates/gcc/startup_stm32f746xx.o
                0x08000284                RTC_Alarm_IRQHandler
                0x08000284                EXTI2_IRQHandler
                0x08000284                TIM8_CC_IRQHandler
                0x08000284                UART8_IRQHandler
                0x08000284                SPI4_IRQHandler
                0x08000284                TIM1_CC_IRQHandler
                0x08000284                DMA2_Stream5_IRQHandler
                0x08000284                DMA1_Stream5_IRQHandler
                0x08000284                PVD_IRQHandler
                0x08000284                TAMP_STAMP_IRQHandler
                0x08000284                CAN2_RX1_IRQHandler
                0x08000284                EXTI3_IRQHandler
                0x08000284                TIM8_TRG_COM_TIM14_IRQHandler
                0x08000284                TIM8_UP_TIM13_IRQHandler
                0x08000284                I2C3_ER_IRQHandler
                0x08000284                EXTI0_IRQHandler
                0x08000284                I2C2_EV_IRQHandler
                0x08000284                DMA1_Stream2_IRQHandler
                0x08000284                CAN1_RX0_IRQHandler
                0x08000284                FPU_IRQHandler
                0x08000284                OTG_HS_WKUP_IRQHandler
                0x08000284                LTDC_ER_IRQHandler
                0x08000284                CAN2_SCE_IRQHandler
                0x08000284                DMA2_Stream2_IRQHandler
                0x08000284                SPI1_IRQHandler
                0x08000284                TIM6_DAC_IRQHandler
                0x08000284                TIM1_BRK_TIM9_IRQHandler
                0x08000284                DCMI_IRQHandler
                0x08000284                CAN2_RX0_IRQHandler
                0x08000284                DMA2_Stream3_IRQHandler
                0x08000284                SAI2_IRQHandler
                0x08000284                USART6_IRQHandler
                0x08000284                USART3_IRQHandler
                0x08000284                CAN1_RX1_IRQHandler
                0x08000284                UART5_IRQHandler
                0x08000284                DMA2_Stream0_IRQHandler
                0x08000284                TIM4_IRQHandler
                0x08000284                QUADSPI_IRQHandler
                0x08000284                I2C1_EV_IRQHandler
                0x08000284                DMA1_Stream6_IRQHandler
                0x08000284                DMA1_Stream1_IRQHandler
                0x08000284                UART4_IRQHandler
                0x08000284                TIM3_IRQHandler
                0x08000284                RCC_IRQHandler
                0x08000284                TIM8_BRK_TIM12_IRQHandler
                0x08000284                Default_Handler
                0x08000284                CEC_IRQHandler
                0x08000284                EXTI15_10_IRQHandler
                0x08000284                ADC_IRQHandler
                0x08000284                DMA1_Stream7_IRQHandler
                0x08000284                SPI5_IRQHandler
                0x08000284                TIM7_IRQHandler
                0x08000284                SDMMC1_IRQHandler
                0x08000284                CAN2_TX_IRQHandler
                0x08000284                TIM5_IRQHandler
                0x08000284                DMA2_Stream7_IRQHandler
                0x08000284                I2C3_EV_IRQHandler
                0x08000284                EXTI9_5_IRQHandler
                0x08000284                RTC_WKUP_IRQHandler
                0x08000284                LTDC_IRQHandler
                0x08000284                ETH_WKUP_IRQHandler
                0x08000284                SPDIF_RX_IRQHandler
                0x08000284                SPI2_IRQHandler
                0x08000284                OTG_HS_EP1_IN_IRQHandler
                0x08000284                DMA1_Stream0_IRQHandler
                0x08000284                CAN1_TX_IRQHandler
                0x08000284                EXTI4_IRQHandler
                0x08000284                RNG_IRQHandler
                0x08000284                ETH_IRQHandler
                0x08000284                OTG_HS_EP1_OUT_IRQHandler
                0x08000284                WWDG_IRQHandler
                0x08000284                SPI6_IRQHandler
                0x08000284                I2C4_EV_IRQHandler
                0x08000284                TIM2_IRQHandler
                0x08000284                OTG_FS_WKUP_IRQHandler
                0x08000284                TIM1_TRG_COM_TIM11_IRQHandler
                0x08000284                OTG_HS_IRQHandler
                0x08000284                DMA2D_IRQHandler
                0x08000284                EXTI1_IRQHandler
                0x08000284                UART7_IRQHandler
                0x08000284                I2C2_ER_IRQHandler
                0x08000284                CAN1_SCE_IRQHandler
                0x08000284                FLASH_IRQHandler
                0x08000284                DMA2_Stream4_IRQHandler
                0x08000284                SPI3_IRQHandler
                0x08000284                DMA1_Stream4_IRQHandler
                0x08000284                I2C1_ER_IRQHandler
                0x08000284                FMC_IRQHandler
                0x08000284                LPTIM1_IRQHandler
                0x08000284                I2C4_ER_IRQHandler
                0x08000284                DMA2_Stream6_IRQHandler
                0x08000284                SAI1_IRQHandler
                0x08000284                DMA1_Stream3_IRQHandler
 .text.HAL_Init
                0x08000286       0x16 Drivers/STM32F7xx_HAL_Driver/Src/stm32f7xx_hal.o
                0x08000286                HAL_Init
 .text.HAL_IncTick
                0x0800029c       0x10 Drivers/STM32F7xx_HAL_Driver/Src/stm32f7xx_hal.o
                0x0800029c                HAL_IncTick
 .text.HAL_GetTick
                0x080002ac        0xc Drivers/STM32F7xx_HAL_Driver/Src/stm32f7xx_hal.o
                0x080002ac                HAL_GetTick
 .text.HAL_Delay
                0x080002b8       0x1a Drivers/STM32F7xx_HAL_Driver/Src/stm32f7xx_hal.o
                0x080002b8                HAL_Delay
 *fill*         0x080002d2        0x2 
 .text.HAL_NVIC_SetPriorityGrouping
                0x080002d4       0x24 Drivers/STM32F7xx_HAL_Driver/Src/stm32f7xx_hal_cortex.o
                0x080002d4                HAL_NVIC_SetPriorityGrouping
 .text.HAL_NVIC_SetPriority
                0x080002f8       0x70 Drivers/STM32F7xx_HAL_Driver/Src/stm32f7xx_hal_cortex.o
                0x080002f8                HAL_NVIC_SetPriority
 .text.HAL_NVIC_EnableIRQ
                0x08000368       0x18 Drivers/STM32F7xx_HAL_Driver/Src/stm32f7xx_hal_cortex.o
                0x08000368                HAL_NVIC_EnableIRQ
 .text.HAL_SYSTICK_Config
                0x08000380       0x2c Drivers/STM32F7xx_HAL_Driver/Src/stm32f7xx_hal_cortex.o
                0x08000380                HAL_SYSTICK_Config
 .text.HAL_SYSTICK_CLKSourceConfig
                0x080003ac       0x18 Drivers/STM32F7xx_HAL_Driver/Src/stm32f7xx_hal_cortex.o
                0x080003ac                HAL_SYSTICK_CLKSourceConfig
 .text.HAL_SYSTICK_Callback
                0x080003c4        0x2 Drivers/STM32F7xx_HAL_Driver/Src/stm32f7xx_hal_cortex.o
                0x080003c4                HAL_SYSTICK_Callback
 .text.HAL_SYSTICK_IRQHandler
                0x080003c6        0x8 Drivers/STM32F7xx_HAL_Driver/Src/stm32f7xx_hal_cortex.o
                0x080003c6                HAL_SYSTICK_IRQHandler
 .text.DCMI_DMAXferCplt
                0x080003ce       0x7c Drivers/STM32F7xx_HAL_Driver/Src/stm32f7xx_hal_dcmi.o
 *fill*         0x0800044a        0x2 
 .text.HAL_DCMI_Init
                0x0800044c       0xc8 Drivers/STM32F7xx_HAL_Driver/Src/stm32f7xx_hal_dcmi.o
                0x0800044c                HAL_DCMI_Init
 .text.HAL_DCMI_Start_DMA
                0x08000514       0xbc Drivers/STM32F7xx_HAL_Driver/Src/stm32f7xx_hal_dcmi.o
                0x08000514                HAL_DCMI_Start_DMA
 .text.DCMI_DMAError
                0x080005d0       0x20 Drivers/STM32F7xx_HAL_Driver/Src/stm32f7xx_hal_dcmi.o
 .text.DMA_CalcBaseAndBitshift
                0x080005f0       0x2c Drivers/STM32F7xx_HAL_Driver/Src/stm32f7xx_hal_dma.o
 .text.HAL_DMA_Init
                0x0800061c       0xec Drivers/STM32F7xx_HAL_Driver/Src/stm32f7xx_hal_dma.o
                0x0800061c                HAL_DMA_Init
 .text.HAL_DMA_Start_IT
                0x08000708       0x7e Drivers/STM32F7xx_HAL_Driver/Src/stm32f7xx_hal_dma.o
                0x08000708                HAL_DMA_Start_IT
 .text.HAL_DMA_Abort_IT
                0x08000786       0x24 Drivers/STM32F7xx_HAL_Driver/Src/stm32f7xx_hal_dma.o
                0x08000786                HAL_DMA_Abort_IT
 *fill*         0x080007aa        0x2 
 .text.HAL_DMA_IRQHandler
                0x080007ac      0x17c Drivers/STM32F7xx_HAL_Driver/Src/stm32f7xx_hal_dma.o
                0x080007ac                HAL_DMA_IRQHandler
 .text.HAL_DMA2D_Init
                0x08000928       0x58 Drivers/STM32F7xx_HAL_Driver/Src/stm32f7xx_hal_dma2d.o
                0x08000928                HAL_DMA2D_Init
 .text.HAL_DMA2D_ConfigLayer
                0x08000980       0xb4 Drivers/STM32F7xx_HAL_Driver/Src/stm32f7xx_hal_dma2d.o
                0x08000980                HAL_DMA2D_ConfigLayer
 .text.HAL_DMAEx_MultiBufferStart_IT
                0x08000a34      0x3cc Drivers/STM32F7xx_HAL_Driver/Src/stm32f7xx_hal_dma_ex.o
                0x08000a34                HAL_DMAEx_MultiBufferStart_IT
 .text.HAL_DMAEx_ChangeMemory
                0x08000e00        0xe Drivers/STM32F7xx_HAL_Driver/Src/stm32f7xx_hal_dma_ex.o
                0x08000e00                HAL_DMAEx_ChangeMemory
 *fill*         0x08000e0e        0x2 
 .text.HAL_GPIO_Init
                0x08000e10      0x1d8 Drivers/STM32F7xx_HAL_Driver/Src/stm32f7xx_hal_gpio.o
                0x08000e10                HAL_GPIO_Init
 .text.HAL_GPIO_WritePin
                0x08000fe8        0x8 Drivers/STM32F7xx_HAL_Driver/Src/stm32f7xx_hal_gpio.o
                0x08000fe8                HAL_GPIO_WritePin
 .text.HAL_I2C_Init
                0x08000ff0       0xa2 Drivers/STM32F7xx_HAL_Driver/Src/stm32f7xx_hal_i2c.o
                0x08000ff0                HAL_I2C_Init
 .text.HAL_I2CEx_ConfigAnalogFilter
                0x08001092       0x4c Drivers/STM32F7xx_HAL_Driver/Src/stm32f7xx_hal_i2c_ex.o
                0x08001092                HAL_I2CEx_ConfigAnalogFilter
 .text.HAL_PCD_Init
                0x080010de       0xd6 Drivers/STM32F7xx_HAL_Driver/Src/stm32f7xx_hal_pcd.o
                0x080010de                HAL_PCD_Init
 .text.HAL_PCD_Start
                0x080011b4       0x2a Drivers/STM32F7xx_HAL_Driver/Src/stm32f7xx_hal_pcd.o
                0x080011b4                HAL_PCD_Start
 *fill*         0x080011de        0x2 
 .text.HAL_PCD_IRQHandler
                0x080011e0      0x5a8 Drivers/STM32F7xx_HAL_Driver/Src/stm32f7xx_hal_pcd.o
                0x080011e0                HAL_PCD_IRQHandler
 .text.HAL_PCD_SetAddress
                0x08001788       0x24 Drivers/STM32F7xx_HAL_Driver/Src/stm32f7xx_hal_pcd.o
                0x08001788                HAL_PCD_SetAddress
 .text.HAL_PCD_EP_Open
                0x080017ac       0x60 Drivers/STM32F7xx_HAL_Driver/Src/stm32f7xx_hal_pcd.o
                0x080017ac                HAL_PCD_EP_Open
 .text.HAL_PCD_EP_Close
                0x0800180c       0x46 Drivers/STM32F7xx_HAL_Driver/Src/stm32f7xx_hal_pcd.o
                0x0800180c                HAL_PCD_EP_Close
 .text.HAL_PCD_EP_Receive
                0x08001852       0x62 Drivers/STM32F7xx_HAL_Driver/Src/stm32f7xx_hal_pcd.o
                0x08001852                HAL_PCD_EP_Receive
 .text.HAL_PCD_EP_Transmit
                0x080018b4       0x5a Drivers/STM32F7xx_HAL_Driver/Src/stm32f7xx_hal_pcd.o
                0x080018b4                HAL_PCD_EP_Transmit
 .text.HAL_PCD_EP_SetStall
                0x0800190e       0x5e Drivers/STM32F7xx_HAL_Driver/Src/stm32f7xx_hal_pcd.o
                0x0800190e                HAL_PCD_EP_SetStall
 .text.HAL_PCD_EP_ClrStall
                0x0800196c       0x4c Drivers/STM32F7xx_HAL_Driver/Src/stm32f7xx_hal_pcd.o
                0x0800196c                HAL_PCD_EP_ClrStall
 .text.HAL_PCDEx_SetTxFiFo
                0x080019b8       0x40 Drivers/STM32F7xx_HAL_Driver/Src/stm32f7xx_hal_pcd_ex.o
                0x080019b8                HAL_PCDEx_SetTxFiFo
 .text.HAL_PCDEx_SetRxFiFo
                0x080019f8        0x8 Drivers/STM32F7xx_HAL_Driver/Src/stm32f7xx_hal_pcd_ex.o
                0x080019f8                HAL_PCDEx_SetRxFiFo
 .text.HAL_PCDEx_ActivateLPM
                0x08001a00       0x26 Drivers/STM32F7xx_HAL_Driver/Src/stm32f7xx_hal_pcd_ex.o
                0x08001a00                HAL_PCDEx_ActivateLPM
 *fill*         0x08001a26        0x2 
 .text.HAL_RCC_OscConfig
                0x08001a28      0x338 Drivers/STM32F7xx_HAL_Driver/Src/stm32f7xx_hal_rcc.o
                0x08001a28                HAL_RCC_OscConfig
 .text.HAL_RCC_GetSysClockFreq
                0x08001d60       0x7c Drivers/STM32F7xx_HAL_Driver/Src/stm32f7xx_hal_rcc.o
                0x08001d60                HAL_RCC_GetSysClockFreq
 .text.HAL_RCC_ClockConfig
                0x08001ddc      0x154 Drivers/STM32F7xx_HAL_Driver/Src/stm32f7xx_hal_rcc.o
                0x08001ddc                HAL_RCC_ClockConfig
 .text.HAL_RCC_GetHCLKFreq
                0x08001f30        0xc Drivers/STM32F7xx_HAL_Driver/Src/stm32f7xx_hal_rcc.o
                0x08001f30                HAL_RCC_GetHCLKFreq
 .text.HAL_RCC_GetPCLK1Freq
                0x08001f3c       0x30 Drivers/STM32F7xx_HAL_Driver/Src/stm32f7xx_hal_rcc.o
                0x08001f3c                HAL_RCC_GetPCLK1Freq
 .text.HAL_RCC_GetPCLK2Freq
                0x08001f6c       0x30 Drivers/STM32F7xx_HAL_Driver/Src/stm32f7xx_hal_rcc.o
                0x08001f6c                HAL_RCC_GetPCLK2Freq
 .text.HAL_RCC_GetClockConfig
                0x08001f9c       0x3c Drivers/STM32F7xx_HAL_Driver/Src/stm32f7xx_hal_rcc.o
                0x08001f9c                HAL_RCC_GetClockConfig
 .text.HAL_RCCEx_PeriphCLKConfig
                0x08001fd8      0x74c Drivers/STM32F7xx_HAL_Driver/Src/stm32f7xx_hal_rcc_ex.o
                0x08001fd8                HAL_RCCEx_PeriphCLKConfig
 .text.HAL_SDRAM_Init
                0x08002724       0x40 Drivers/STM32F7xx_HAL_Driver/Src/stm32f7xx_hal_sdram.o
                0x08002724                HAL_SDRAM_Init
 .text.HAL_TIM_Base_MspInit
                0x08002764        0x2 Drivers/STM32F7xx_HAL_Driver/Src/stm32f7xx_hal_tim.o
                0x08002764                HAL_TIM_Base_MspInit
 .text.HAL_TIM_Base_Start_IT
                0x08002766       0x16 Drivers/STM32F7xx_HAL_Driver/Src/stm32f7xx_hal_tim.o
                0x08002766                HAL_TIM_Base_Start_IT
 .text.HAL_TIM_OC_DelayElapsedCallback
                0x0800277c        0x2 Drivers/STM32F7xx_HAL_Driver/Src/stm32f7xx_hal_tim.o
                0x0800277c                HAL_TIM_OC_DelayElapsedCallback
 .text.HAL_TIM_IC_CaptureCallback
                0x0800277e        0x2 Drivers/STM32F7xx_HAL_Driver/Src/stm32f7xx_hal_tim.o
                0x0800277e                HAL_TIM_IC_CaptureCallback
 .text.HAL_TIM_PWM_PulseFinishedCallback
                0x08002780        0x2 Drivers/STM32F7xx_HAL_Driver/Src/stm32f7xx_hal_tim.o
                0x08002780                HAL_TIM_PWM_PulseFinishedCallback
 .text.HAL_TIM_TriggerCallback
                0x08002782        0x2 Drivers/STM32F7xx_HAL_Driver/Src/stm32f7xx_hal_tim.o
                0x08002782                HAL_TIM_TriggerCallback
 .text.HAL_TIM_IRQHandler
                0x08002784      0x15e Drivers/STM32F7xx_HAL_Driver/Src/stm32f7xx_hal_tim.o
                0x08002784                HAL_TIM_IRQHandler
 *fill*         0x080028e2        0x2 
 .text.TIM_Base_SetConfig
                0x080028e4       0xc8 Drivers/STM32F7xx_HAL_Driver/Src/stm32f7xx_hal_tim.o
                0x080028e4                TIM_Base_SetConfig
 .text.HAL_TIM_Base_Init
                0x080029ac       0x2c Drivers/STM32F7xx_HAL_Driver/Src/stm32f7xx_hal_tim.o
                0x080029ac                HAL_TIM_Base_Init
 .text.HAL_TIMEx_CommutationCallback
                0x080029d8        0x2 Drivers/STM32F7xx_HAL_Driver/Src/stm32f7xx_hal_tim_ex.o
                0x080029d8                HAL_TIMEx_CommutationCallback
 .text.HAL_TIMEx_BreakCallback
                0x080029da        0x2 Drivers/STM32F7xx_HAL_Driver/Src/stm32f7xx_hal_tim_ex.o
                0x080029da                HAL_TIMEx_BreakCallback
 .text.UART_EndRxTransfer
                0x080029dc       0x1a Drivers/STM32F7xx_HAL_Driver/Src/stm32f7xx_hal_uart.o
 .text.UART_WaitOnFlagUntilTimeout
                0x080029f6       0x62 Drivers/STM32F7xx_HAL_Driver/Src/stm32f7xx_hal_uart.o
                0x080029f6                UART_WaitOnFlagUntilTimeout
 .text.HAL_UART_Transmit
                0x08002a58       0xb4 Drivers/STM32F7xx_HAL_Driver/Src/stm32f7xx_hal_uart.o
                0x08002a58                HAL_UART_Transmit
 .text.HAL_UART_TxCpltCallback
                0x08002b0c        0x2 Drivers/STM32F7xx_HAL_Driver/Src/stm32f7xx_hal_uart.o
                0x08002b0c                HAL_UART_TxCpltCallback
 .text.HAL_UART_RxCpltCallback
                0x08002b0e        0x2 Drivers/STM32F7xx_HAL_Driver/Src/stm32f7xx_hal_uart.o
                0x08002b0e                HAL_UART_RxCpltCallback
 .text.UART_Receive_IT
                0x08002b10       0x72 Drivers/STM32F7xx_HAL_Driver/Src/stm32f7xx_hal_uart.o
 .text.HAL_UART_ErrorCallback
                0x08002b82        0x2 Drivers/STM32F7xx_HAL_Driver/Src/stm32f7xx_hal_uart.o
                0x08002b82                HAL_UART_ErrorCallback
 .text.HAL_UART_IRQHandler
                0x08002b84      0x15c Drivers/STM32F7xx_HAL_Driver/Src/stm32f7xx_hal_uart.o
                0x08002b84                HAL_UART_IRQHandler
 .text.UART_DMAAbortOnError
                0x08002ce0       0x14 Drivers/STM32F7xx_HAL_Driver/Src/stm32f7xx_hal_uart.o
 .text.UART_SetConfig
                0x08002cf4      0x268 Drivers/STM32F7xx_HAL_Driver/Src/stm32f7xx_hal_uart.o
                0x08002cf4                UART_SetConfig
 .text.UART_AdvFeatureConfig
                0x08002f5c       0xaa Drivers/STM32F7xx_HAL_Driver/Src/stm32f7xx_hal_uart.o
                0x08002f5c                UART_AdvFeatureConfig
 .text.UART_CheckIdleState
                0x08003006       0x68 Drivers/STM32F7xx_HAL_Driver/Src/stm32f7xx_hal_uart.o
                0x08003006                UART_CheckIdleState
 .text.HAL_UART_Init
                0x0800306e       0x64 Drivers/STM32F7xx_HAL_Driver/Src/stm32f7xx_hal_uart.o
                0x0800306e                HAL_UART_Init
 .text.FMC_SDRAM_Init
                0x080030d2       0x82 Drivers/STM32F7xx_HAL_Driver/Src/stm32f7xx_ll_fmc.o
                0x080030d2                FMC_SDRAM_Init
 .text.FMC_SDRAM_Timing_Init
                0x08003154       0x98 Drivers/STM32F7xx_HAL_Driver/Src/stm32f7xx_ll_fmc.o
                0x08003154                FMC_SDRAM_Timing_Init
 .text.USB_CoreInit
                0x080031ec       0x76 Drivers/STM32F7xx_HAL_Driver/Src/stm32f7xx_ll_usb.o
                0x080031ec                USB_CoreInit
 .text.USB_EnableGlobalInt
                0x08003262        0xc Drivers/STM32F7xx_HAL_Driver/Src/stm32f7xx_ll_usb.o
                0x08003262                USB_EnableGlobalInt
 .text.USB_DisableGlobalInt
                0x0800326e        0xc Drivers/STM32F7xx_HAL_Driver/Src/stm32f7xx_ll_usb.o
                0x0800326e                USB_DisableGlobalInt
 .text.USB_SetCurrentMode
                0x0800327a       0x2c Drivers/STM32F7xx_HAL_Driver/Src/stm32f7xx_ll_usb.o
                0x0800327a                USB_SetCurrentMode
 *fill*         0x080032a6        0x2 
 .text.USB_DevInit
                0x080032a8      0x148 Drivers/STM32F7xx_HAL_Driver/Src/stm32f7xx_ll_usb.o
                0x080032a8                USB_DevInit
 .text.USB_FlushTxFifo
                0x080033f0       0x24 Drivers/STM32F7xx_HAL_Driver/Src/stm32f7xx_ll_usb.o
                0x080033f0                USB_FlushTxFifo
 .text.USB_FlushRxFifo
                0x08003414       0x20 Drivers/STM32F7xx_HAL_Driver/Src/stm32f7xx_ll_usb.o
                0x08003414                USB_FlushRxFifo
 .text.USB_SetDevSpeed
                0x08003434        0xe Drivers/STM32F7xx_HAL_Driver/Src/stm32f7xx_ll_usb.o
                0x08003434                USB_SetDevSpeed
 .text.USB_GetDevSpeed
                0x08003442       0x36 Drivers/STM32F7xx_HAL_Driver/Src/stm32f7xx_ll_usb.o
                0x08003442                USB_GetDevSpeed
 .text.USB_ActivateEndpoint
                0x08003478       0x82 Drivers/STM32F7xx_HAL_Driver/Src/stm32f7xx_ll_usb.o
                0x08003478                USB_ActivateEndpoint
 .text.USB_DeactivateEndpoint
                0x080034fa       0x6c Drivers/STM32F7xx_HAL_Driver/Src/stm32f7xx_ll_usb.o
                0x080034fa                USB_DeactivateEndpoint
 *fill*         0x08003566        0x2 
 .text.USB_EPStartXfer
                0x08003568      0x230 Drivers/STM32F7xx_HAL_Driver/Src/stm32f7xx_ll_usb.o
                0x08003568                USB_EPStartXfer
 .text.USB_EP0StartXfer
                0x08003798      0x150 Drivers/STM32F7xx_HAL_Driver/Src/stm32f7xx_ll_usb.o
                0x08003798                USB_EP0StartXfer
 .text.USB_WritePacket
                0x080038e8       0x26 Drivers/STM32F7xx_HAL_Driver/Src/stm32f7xx_ll_usb.o
                0x080038e8                USB_WritePacket
 .text.USB_ReadPacket
                0x0800390e       0x20 Drivers/STM32F7xx_HAL_Driver/Src/stm32f7xx_ll_usb.o
                0x0800390e                USB_ReadPacket
 .text.USB_EPSetStall
                0x0800392e       0x62 Drivers/STM32F7xx_HAL_Driver/Src/stm32f7xx_ll_usb.o
                0x0800392e                USB_EPSetStall
 .text.USB_EPClearStall
                0x08003990       0x3a Drivers/STM32F7xx_HAL_Driver/Src/stm32f7xx_ll_usb.o
                0x08003990                USB_EPClearStall
 .text.USB_SetDevAddress
                0x080039ca       0x20 Drivers/STM32F7xx_HAL_Driver/Src/stm32f7xx_ll_usb.o
                0x080039ca                USB_SetDevAddress
 .text.USB_DevConnect
                0x080039ea       0x18 Drivers/STM32F7xx_HAL_Driver/Src/stm32f7xx_ll_usb.o
                0x080039ea                USB_DevConnect
 .text.USB_DevDisconnect
                0x08003a02       0x18 Drivers/STM32F7xx_HAL_Driver/Src/stm32f7xx_ll_usb.o
                0x08003a02                USB_DevDisconnect
 .text.USB_ReadInterrupts
                0x08003a1a        0x8 Drivers/STM32F7xx_HAL_Driver/Src/stm32f7xx_ll_usb.o
                0x08003a1a                USB_ReadInterrupts
 .text.USB_ReadDevAllOutEpInterrupt
                0x08003a22       0x10 Drivers/STM32F7xx_HAL_Driver/Src/stm32f7xx_ll_usb.o
                0x08003a22                USB_ReadDevAllOutEpInterrupt
 .text.USB_ReadDevAllInEpInterrupt
                0x08003a32       0x10 Drivers/STM32F7xx_HAL_Driver/Src/stm32f7xx_ll_usb.o
                0x08003a32                USB_ReadDevAllInEpInterrupt
 .text.USB_ReadDevOutEPInterrupt
                0x08003a42       0x14 Drivers/STM32F7xx_HAL_Driver/Src/stm32f7xx_ll_usb.o
                0x08003a42                USB_ReadDevOutEPInterrupt
 .text.USB_ReadDevInEPInterrupt
                0x08003a56       0x20 Drivers/STM32F7xx_HAL_Driver/Src/stm32f7xx_ll_usb.o
                0x08003a56                USB_ReadDevInEPInterrupt
 .text.USB_GetMode
                0x08003a76        0x8 Drivers/STM32F7xx_HAL_Driver/Src/stm32f7xx_ll_usb.o
                0x08003a76                USB_GetMode
 .text.USB_ActivateSetup
                0x08003a7e       0x36 Drivers/STM32F7xx_HAL_Driver/Src/stm32f7xx_ll_usb.o
                0x08003a7e                USB_ActivateSetup
 .text.USB_EP0_OutStart
                0x08003ab4       0x40 Drivers/STM32F7xx_HAL_Driver/Src/stm32f7xx_ll_usb.o
                0x08003ab4                USB_EP0_OutStart
 .text.USB_CoreReset
                0x08003af4       0x30 Drivers/STM32F7xx_HAL_Driver/Src/stm32f7xx_ll_usb.o
 .text.USBD_HID_GetCfgDesc
                0x08003b24        0xc Middlewares/ST/STM32_USB_Device_Library/Class/HID/Src/usbd_hid.o
 .text.USBD_HID_DataIn
                0x08003b30        0xa Middlewares/ST/STM32_USB_Device_Library/Class/HID/Src/usbd_hid.o
 *fill*         0x08003b3a        0x2 
 .text.USBD_HID_GetDeviceQualifierDesc
                0x08003b3c        0xc Middlewares/ST/STM32_USB_Device_Library/Class/HID/Src/usbd_hid.o
 .text.USBD_HID_Setup
                0x08003b48       0xb0 Middlewares/ST/STM32_USB_Device_Library/Class/HID/Src/usbd_hid.o
 .text.USBD_HID_DeInit
                0x08003bf8       0x1e Middlewares/ST/STM32_USB_Device_Library/Class/HID/Src/usbd_hid.o
 .text.USBD_HID_Init
                0x08003c16       0x26 Middlewares/ST/STM32_USB_Device_Library/Class/HID/Src/usbd_hid.o
 .text.USBD_Init
                0x08003c3c       0x2a Middlewares/ST/STM32_USB_Device_Library/Core/Src/usbd_core.o
                0x08003c3c                USBD_Init
 .text.USBD_RegisterClass
                0x08003c66        0xe Middlewares/ST/STM32_USB_Device_Library/Core/Src/usbd_core.o
                0x08003c66                USBD_RegisterClass
 .text.USBD_Start
                0x08003c74        0xa Middlewares/ST/STM32_USB_Device_Library/Core/Src/usbd_core.o
                0x08003c74                USBD_Start
 .text.USBD_SetClassConfig
                0x08003c7e       0x16 Middlewares/ST/STM32_USB_Device_Library/Core/Src/usbd_core.o
                0x08003c7e                USBD_SetClassConfig
 .text.USBD_ClrClassConfig
                0x08003c94        0xe Middlewares/ST/STM32_USB_Device_Library/Core/Src/usbd_core.o
                0x08003c94                USBD_ClrClassConfig
 .text.USBD_LL_SetupStage
                0x08003ca2       0x5a Middlewares/ST/STM32_USB_Device_Library/Core/Src/usbd_core.o
                0x08003ca2                USBD_LL_SetupStage
 .text.USBD_LL_DataOutStage
                0x08003cfc       0x62 Middlewares/ST/STM32_USB_Device_Library/Core/Src/usbd_core.o
                0x08003cfc                USBD_LL_DataOutStage
 .text.USBD_LL_DataInStage
                0x08003d5e       0x9c Middlewares/ST/STM32_USB_Device_Library/Core/Src/usbd_core.o
                0x08003d5e                USBD_LL_DataInStage
 .text.USBD_LL_Reset
                0x08003dfa       0x3e Middlewares/ST/STM32_USB_Device_Library/Core/Src/usbd_core.o
                0x08003dfa                USBD_LL_Reset
 .text.USBD_LL_SetSpeed
                0x08003e38        0x6 Middlewares/ST/STM32_USB_Device_Library/Core/Src/usbd_core.o
                0x08003e38                USBD_LL_SetSpeed
 .text.USBD_LL_Suspend
                0x08003e3e       0x12 Middlewares/ST/STM32_USB_Device_Library/Core/Src/usbd_core.o
                0x08003e3e                USBD_LL_Suspend
 .text.USBD_LL_Resume
                0x08003e50        0xc Middlewares/ST/STM32_USB_Device_Library/Core/Src/usbd_core.o
                0x08003e50                USBD_LL_Resume
 .text.USBD_LL_SOF
                0x08003e5c       0x18 Middlewares/ST/STM32_USB_Device_Library/Core/Src/usbd_core.o
                0x08003e5c                USBD_LL_SOF
 .text.USBD_LL_IsoINIncomplete
                0x08003e74        0x4 Middlewares/ST/STM32_USB_Device_Library/Core/Src/usbd_core.o
                0x08003e74                USBD_LL_IsoINIncomplete
 .text.USBD_LL_IsoOUTIncomplete
                0x08003e78        0x4 Middlewares/ST/STM32_USB_Device_Library/Core/Src/usbd_core.o
                0x08003e78                USBD_LL_IsoOUTIncomplete
 .text.USBD_LL_DevConnected
                0x08003e7c        0x4 Middlewares/ST/STM32_USB_Device_Library/Core/Src/usbd_core.o
                0x08003e7c                USBD_LL_DevConnected
 .text.USBD_LL_DevDisconnected
                0x08003e80       0x16 Middlewares/ST/STM32_USB_Device_Library/Core/Src/usbd_core.o
                0x08003e80                USBD_LL_DevDisconnected
 .text.USBD_ParseSetupRequest
                0x08003e96       0x28 Middlewares/ST/STM32_USB_Device_Library/Core/Src/usbd_ctlreq.o
                0x08003e96                USBD_ParseSetupRequest
 .text.USBD_CtlError
                0x08003ebe       0x16 Middlewares/ST/STM32_USB_Device_Library/Core/Src/usbd_ctlreq.o
                0x08003ebe                USBD_CtlError
 .text.USBD_StdDevReq
                0x08003ed4      0x22c Middlewares/ST/STM32_USB_Device_Library/Core/Src/usbd_ctlreq.o
                0x08003ed4                USBD_StdDevReq
 .text.USBD_StdItfReq
                0x08004100       0x30 Middlewares/ST/STM32_USB_Device_Library/Core/Src/usbd_ctlreq.o
                0x08004100                USBD_StdItfReq
 .text.USBD_StdEPReq
                0x08004130       0xc6 Middlewares/ST/STM32_USB_Device_Library/Core/Src/usbd_ctlreq.o
                0x08004130                USBD_StdEPReq
 .text.USBD_GetString
                0x080041f6       0x38 Middlewares/ST/STM32_USB_Device_Library/Core/Src/usbd_ctlreq.o
                0x080041f6                USBD_GetString
 .text.USBD_CtlSendData
                0x0800422e       0x1a Middlewares/ST/STM32_USB_Device_Library/Core/Src/usbd_ioreq.o
                0x0800422e                USBD_CtlSendData
 .text.USBD_CtlContinueSendData
                0x08004248       0x10 Middlewares/ST/STM32_USB_Device_Library/Core/Src/usbd_ioreq.o
                0x08004248                USBD_CtlContinueSendData
 .text.USBD_CtlContinueRx
                0x08004258       0x10 Middlewares/ST/STM32_USB_Device_Library/Core/Src/usbd_ioreq.o
                0x08004258                USBD_CtlContinueRx
 .text.USBD_CtlSendStatus
                0x08004268       0x16 Middlewares/ST/STM32_USB_Device_Library/Core/Src/usbd_ioreq.o
                0x08004268                USBD_CtlSendStatus
 .text.USBD_CtlReceiveStatus
                0x0800427e       0x16 Middlewares/ST/STM32_USB_Device_Library/Core/Src/usbd_ioreq.o
                0x0800427e                USBD_CtlReceiveStatus
 .text.MX_DCMI_Init
                0x08004294       0x38 Src/dcmi.o
                0x08004294                MX_DCMI_Init
 .text.HAL_DCMI_MspInit
                0x080042cc       0xf0 Src/dcmi.o
                0x080042cc                HAL_DCMI_MspInit
 .text.HAL_DCMI_Start
                0x080043bc       0x10 Src/dcmi.o
                0x080043bc                HAL_DCMI_Start
 .text.MX_DMA_Init
                0x080043cc       0x30 Src/dma.o
                0x080043cc                MX_DMA_Init
 .text.MX_DMA2D_Init
                0x080043fc       0x40 Src/dma2d.o
                0x080043fc                MX_DMA2D_Init
 .text.HAL_DMA2D_MspInit
                0x0800443c       0x28 Src/dma2d.o
                0x0800443c                HAL_DMA2D_MspInit
 .text.MX_FMC_Init
                0x08004464       0x64 Src/fmc.o
                0x08004464                MX_FMC_Init
 .text.HAL_SDRAM_MspInit
                0x080044c8       0xd0 Src/fmc.o
                0x080044c8                HAL_SDRAM_MspInit
 .text.MX_GPIO_Init
                0x08004598      0x214 Src/gpio.o
                0x08004598                MX_GPIO_Init
 .text.MX_I2C1_Init
                0x080047ac       0x48 Src/i2c.o
                0x080047ac                MX_I2C1_Init
 .text.HAL_I2C_MspInit
                0x080047f4       0x50 Src/i2c.o
                0x080047f4                HAL_I2C_MspInit
 .text.debug    0x08004844       0x20 Src/main.o
                0x08004844                debug
 .text.HAL_DCMI_ErrorCallback
                0x08004864       0x10 Src/main.o
                0x08004864                HAL_DCMI_ErrorCallback
 .text.HAL_TIM_PeriodElapsedCallback
                0x08004874       0x14 Src/main.o
                0x08004874                HAL_TIM_PeriodElapsedCallback
 .text.Error_Handler
                0x08004888       0x10 Src/main.o
                0x08004888                Error_Handler
 .text.SystemClock_Config
                0x08004898       0xc8 Src/main.o
                0x08004898                SystemClock_Config
 .text.startup.main
                0x08004960      0x100 Src/main.o
                0x08004960                main
 .text.HAL_MspInit
                0x08004a60       0x60 Src/stm32f7xx_hal_msp.o
                0x08004a60                HAL_MspInit
 .text.HAL_InitTick
                0x08004ac0       0x78 Src/stm32f7xx_hal_timebase_TIM.o
                0x08004ac0                HAL_InitTick
 .text.NMI_Handler
                0x08004b38        0x2 Src/stm32f7xx_it.o
                0x08004b38                NMI_Handler
 .text.HardFault_Handler
                0x08004b3a        0x2 Src/stm32f7xx_it.o
                0x08004b3a                HardFault_Handler
 .text.MemManage_Handler
                0x08004b3c        0x2 Src/stm32f7xx_it.o
                0x08004b3c                MemManage_Handler
 .text.BusFault_Handler
                0x08004b3e        0x2 Src/stm32f7xx_it.o
                0x08004b3e                BusFault_Handler
 .text.UsageFault_Handler
                0x08004b40        0x2 Src/stm32f7xx_it.o
                0x08004b40                UsageFault_Handler
 .text.SVC_Handler
                0x08004b42        0x2 Src/stm32f7xx_it.o
                0x08004b42                SVC_Handler
 .text.DebugMon_Handler
                0x08004b44        0x2 Src/stm32f7xx_it.o
                0x08004b44                DebugMon_Handler
 .text.PendSV_Handler
                0x08004b46        0x2 Src/stm32f7xx_it.o
                0x08004b46                PendSV_Handler
 .text.SysTick_Handler
                0x08004b48        0x4 Src/stm32f7xx_it.o
                0x08004b48                SysTick_Handler
 .text.TIM1_UP_TIM10_IRQHandler
                0x08004b4c        0xc Src/stm32f7xx_it.o
                0x08004b4c                TIM1_UP_TIM10_IRQHandler
 .text.USART1_IRQHandler
                0x08004b58        0xc Src/stm32f7xx_it.o
                0x08004b58                USART1_IRQHandler
 .text.USART2_IRQHandler
                0x08004b64        0xc Src/stm32f7xx_it.o
                0x08004b64                USART2_IRQHandler
 .text.DMA2_Stream1_IRQHandler
                0x08004b70        0xc Src/stm32f7xx_it.o
                0x08004b70                DMA2_Stream1_IRQHandler
 .text.OTG_FS_IRQHandler
                0x08004b7c        0xc Src/stm32f7xx_it.o
                0x08004b7c                OTG_FS_IRQHandler
 .text.SystemInit
                0x08004b88       0x4c Src/system_stm32f7xx.o
                0x08004b88                SystemInit
 .text.MX_USART1_UART_Init
                0x08004bd4       0x3c Src/usart.o
                0x08004bd4                MX_USART1_UART_Init
 .text.MX_USART2_UART_Init
                0x08004c10       0x3c Src/usart.o
                0x08004c10                MX_USART2_UART_Init
 .text.HAL_UART_MspInit
                0x08004c4c       0xac Src/usart.o
                0x08004c4c                HAL_UART_MspInit
 .text.MX_USB_DEVICE_Init
                0x08004cf8       0x2c Src/usb_device.o
                0x08004cf8                MX_USB_DEVICE_Init
 .text.HAL_PCD_MspInit
                0x08004d24       0x80 Src/usbd_conf.o
                0x08004d24                HAL_PCD_MspInit
 .text.HAL_PCD_SetupStageCallback
                0x08004da4        0xc Src/usbd_conf.o
                0x08004da4                HAL_PCD_SetupStageCallback
 .text.HAL_PCD_DataOutStageCallback
                0x08004db0       0x12 Src/usbd_conf.o
                0x08004db0                HAL_PCD_DataOutStageCallback
 .text.HAL_PCD_DataInStageCallback
                0x08004dc2       0x10 Src/usbd_conf.o
                0x08004dc2                HAL_PCD_DataInStageCallback
 .text.HAL_PCD_SOFCallback
                0x08004dd2        0x8 Src/usbd_conf.o
                0x08004dd2                HAL_PCD_SOFCallback
 .text.HAL_PCD_ResetCallback
                0x08004dda       0x20 Src/usbd_conf.o
                0x08004dda                HAL_PCD_ResetCallback
 *fill*         0x08004dfa        0x2 
 .text.HAL_PCD_SuspendCallback
                0x08004dfc       0x30 Src/usbd_conf.o
                0x08004dfc                HAL_PCD_SuspendCallback
 .text.HAL_PCD_ResumeCallback
                0x08004e2c        0x8 Src/usbd_conf.o
                0x08004e2c                HAL_PCD_ResumeCallback
 .text.HAL_PCD_ISOOUTIncompleteCallback
                0x08004e34        0x8 Src/usbd_conf.o
                0x08004e34                HAL_PCD_ISOOUTIncompleteCallback
 .text.HAL_PCD_ISOINIncompleteCallback
                0x08004e3c        0x8 Src/usbd_conf.o
                0x08004e3c                HAL_PCD_ISOINIncompleteCallback
 .text.HAL_PCD_ConnectCallback
                0x08004e44        0x8 Src/usbd_conf.o
                0x08004e44                HAL_PCD_ConnectCallback
 .text.HAL_PCD_DisconnectCallback
                0x08004e4c        0x8 Src/usbd_conf.o
                0x08004e4c                HAL_PCD_DisconnectCallback
 .text.USBD_LL_Init
                0x08004e54       0x60 Src/usbd_conf.o
                0x08004e54                USBD_LL_Init
 .text.USBD_LL_Start
                0x08004eb4       0x1c Src/usbd_conf.o
                0x08004eb4                USBD_LL_Start
 .text.USBD_LL_OpenEP
                0x08004ed0       0x20 Src/usbd_conf.o
                0x08004ed0                USBD_LL_OpenEP
 .text.USBD_LL_CloseEP
                0x08004ef0       0x1c Src/usbd_conf.o
                0x08004ef0                USBD_LL_CloseEP
 .text.USBD_LL_StallEP
                0x08004f0c       0x1c Src/usbd_conf.o
                0x08004f0c                USBD_LL_StallEP
 .text.USBD_LL_ClearStallEP
                0x08004f28       0x1c Src/usbd_conf.o
                0x08004f28                USBD_LL_ClearStallEP
 .text.USBD_LL_IsStallEP
                0x08004f44       0x26 Src/usbd_conf.o
                0x08004f44                USBD_LL_IsStallEP
 *fill*         0x08004f6a        0x2 
 .text.USBD_LL_SetUSBAddress
                0x08004f6c       0x1c Src/usbd_conf.o
                0x08004f6c                USBD_LL_SetUSBAddress
 .text.USBD_LL_Transmit
                0x08004f88       0x1c Src/usbd_conf.o
                0x08004f88                USBD_LL_Transmit
 .text.USBD_LL_PrepareReceive
                0x08004fa4       0x1c Src/usbd_conf.o
                0x08004fa4                USBD_LL_PrepareReceive
 .text.HAL_PCDEx_LPM_Callback
                0x08004fc0       0x64 Src/usbd_conf.o
                0x08004fc0                HAL_PCDEx_LPM_Callback
 .text.USBD_FS_DeviceDescriptor
                0x08005024        0xc Src/usbd_desc.o
                0x08005024                USBD_FS_DeviceDescriptor
 .text.USBD_FS_LangIDStrDescriptor
                0x08005030        0xc Src/usbd_desc.o
                0x08005030                USBD_FS_LangIDStrDescriptor
 .text.USBD_FS_USR_BOSDescriptor
                0x0800503c        0xc Src/usbd_desc.o
                0x0800503c                USBD_FS_USR_BOSDescriptor
 .text.USBD_FS_ManufacturerStrDescriptor
                0x08005048       0x1c Src/usbd_desc.o
                0x08005048                USBD_FS_ManufacturerStrDescriptor
 .text.USBD_FS_ProductStrDescriptor
                0x08005064       0x1c Src/usbd_desc.o
                0x08005064                USBD_FS_ProductStrDescriptor
 .text.USBD_FS_SerialStrDescriptor
                0x08005080       0x1c Src/usbd_desc.o
                0x08005080                USBD_FS_SerialStrDescriptor
 .text.USBD_FS_ConfigStrDescriptor
                0x0800509c       0x1c Src/usbd_desc.o
                0x0800509c                USBD_FS_ConfigStrDescriptor
 .text.USBD_FS_InterfaceStrDescriptor
                0x080050b8       0x1c Src/usbd_desc.o
                0x080050b8                USBD_FS_InterfaceStrDescriptor
 .text.__libc_init_array
                0x080050d4       0x4c /home/adam/eclipse/plugins/fr.ac6.mcu.externaltools.arm-none.linux64_1.13.1.201703061524/tools/compiler/bin/../lib/gcc/arm-none-eabi/5.4.1/../../../../arm-none-eabi/lib/armv7e-m/fpu/fpv5-sp-d16/libc_nano.a(lib_a-init.o)
                0x080050d4                __libc_init_array
 .text.malloc   0x08005120       0x10 /home/adam/eclipse/plugins/fr.ac6.mcu.externaltools.arm-none.linux64_1.13.1.201703061524/tools/compiler/bin/../lib/gcc/arm-none-eabi/5.4.1/../../../../arm-none-eabi/lib/armv7e-m/fpu/fpv5-sp-d16/libc_nano.a(lib_a-malloc.o)
                0x08005120                malloc
 .text.free     0x08005130       0x10 /home/adam/eclipse/plugins/fr.ac6.mcu.externaltools.arm-none.linux64_1.13.1.201703061524/tools/compiler/bin/../lib/gcc/arm-none-eabi/5.4.1/../../../../arm-none-eabi/lib/armv7e-m/fpu/fpv5-sp-d16/libc_nano.a(lib_a-malloc.o)
                0x08005130                free
 .text._free_r  0x08005140       0x9c /home/adam/eclipse/plugins/fr.ac6.mcu.externaltools.arm-none.linux64_1.13.1.201703061524/tools/compiler/bin/../lib/gcc/arm-none-eabi/5.4.1/../../../../arm-none-eabi/lib/armv7e-m/fpu/fpv5-sp-d16/libc_nano.a(lib_a-nano-freer.o)
                0x08005140                _free_r
 .text._malloc_r
                0x080051dc       0xbc /home/adam/eclipse/plugins/fr.ac6.mcu.externaltools.arm-none.linux64_1.13.1.201703061524/tools/compiler/bin/../lib/gcc/arm-none-eabi/5.4.1/../../../../arm-none-eabi/lib/armv7e-m/fpu/fpv5-sp-d16/libc_nano.a(lib_a-nano-mallocr.o)
                0x080051dc                _malloc_r
 .text._sbrk_r  0x08005298       0x20 /home/adam/eclipse/plugins/fr.ac6.mcu.externaltools.arm-none.linux64_1.13.1.201703061524/tools/compiler/bin/../lib/gcc/arm-none-eabi/5.4.1/../../../../arm-none-eabi/lib/armv7e-m/fpu/fpv5-sp-d16/libc_nano.a(lib_a-sbrkr.o)
                0x08005298                _sbrk_r
 .text.strcpy   0x080052b8       0x10 /home/adam/eclipse/plugins/fr.ac6.mcu.externaltools.arm-none.linux64_1.13.1.201703061524/tools/compiler/bin/../lib/gcc/arm-none-eabi/5.4.1/../../../../arm-none-eabi/lib/armv7e-m/fpu/fpv5-sp-d16/libc_nano.a(lib_a-strcpy.o)
                0x080052b8                strcpy
 .text.__malloc_lock
                0x080052c8        0x2 /home/adam/eclipse/plugins/fr.ac6.mcu.externaltools.arm-none.linux64_1.13.1.201703061524/tools/compiler/bin/../lib/gcc/arm-none-eabi/5.4.1/../../../../arm-none-eabi/lib/armv7e-m/fpu/fpv5-sp-d16/libc_nano.a(lib_a-mlock.o)
                0x080052c8                __malloc_lock
 .text.__malloc_unlock
                0x080052ca        0x2 /home/adam/eclipse/plugins/fr.ac6.mcu.externaltools.arm-none.linux64_1.13.1.201703061524/tools/compiler/bin/../lib/gcc/arm-none-eabi/5.4.1/../../../../arm-none-eabi/lib/armv7e-m/fpu/fpv5-sp-d16/libc_nano.a(lib_a-mlock.o)
                0x080052ca                __malloc_unlock
 .text._sbrk    0x080052cc       0x1c /home/adam/eclipse/plugins/fr.ac6.mcu.externaltools.arm-none.linux64_1.13.1.201703061524/tools/compiler/bin/../lib/gcc/arm-none-eabi/5.4.1/../../../../arm-none-eabi/lib/armv7e-m/fpu/fpv5-sp-d16/libnosys.a(sbrk.o)
                0x080052cc                _sbrk
 *(.glue_7)
 .glue_7        0x080052e8        0x0 linker stubs
 *(.glue_7t)
 .glue_7t       0x080052e8        0x0 linker stubs
 *(.eh_frame)
 .eh_frame      0x080052e8        0x0 /home/adam/eclipse/plugins/fr.ac6.mcu.externaltools.arm-none.linux64_1.13.1.201703061524/tools/compiler/bin/../lib/gcc/arm-none-eabi/5.4.1/armv7e-m/fpu/fpv5-sp-d16/crtbegin.o
 *(.init)
 .init          0x080052e8        0x4 /home/adam/eclipse/plugins/fr.ac6.mcu.externaltools.arm-none.linux64_1.13.1.201703061524/tools/compiler/bin/../lib/gcc/arm-none-eabi/5.4.1/armv7e-m/fpu/fpv5-sp-d16/crti.o
                0x080052e8                _init
 .init          0x080052ec        0x8 /home/adam/eclipse/plugins/fr.ac6.mcu.externaltools.arm-none.linux64_1.13.1.201703061524/tools/compiler/bin/../lib/gcc/arm-none-eabi/5.4.1/armv7e-m/fpu/fpv5-sp-d16/crtn.o
 *(.fini)
 .fini          0x080052f4        0x4 /home/adam/eclipse/plugins/fr.ac6.mcu.externaltools.arm-none.linux64_1.13.1.201703061524/tools/compiler/bin/../lib/gcc/arm-none-eabi/5.4.1/armv7e-m/fpu/fpv5-sp-d16/crti.o
                0x080052f4                _fini
 .fini          0x080052f8        0x8 /home/adam/eclipse/plugins/fr.ac6.mcu.externaltools.arm-none.linux64_1.13.1.201703061524/tools/compiler/bin/../lib/gcc/arm-none-eabi/5.4.1/armv7e-m/fpu/fpv5-sp-d16/crtn.o
                0x08005300                . = ALIGN (0x4)
                0x08005300                _etext = .

.vfp11_veneer   0x08005300        0x0
 .vfp11_veneer  0x08005300        0x0 linker stubs

.v4_bx          0x08005300        0x0
 .v4_bx         0x08005300        0x0 linker stubs

.iplt           0x08005300        0x0
 .iplt          0x08005300        0x0 /home/adam/eclipse/plugins/fr.ac6.mcu.externaltools.arm-none.linux64_1.13.1.201703061524/tools/compiler/bin/../lib/gcc/arm-none-eabi/5.4.1/armv7e-m/fpu/fpv5-sp-d16/crtbegin.o

.rodata         0x08005300       0xc8
                0x08005300                . = ALIGN (0x4)
 *(.rodata)
 .rodata        0x08005300        0x8 Drivers/STM32F7xx_HAL_Driver/Src/stm32f7xx_hal_dma.o
 .rodata        0x08005308       0x11 Drivers/STM32F7xx_HAL_Driver/Src/stm32f7xx_hal_uart.o
 .rodata        0x08005319       0x18 Src/system_stm32f7xx.o
                0x08005319                AHBPrescTable
                0x08005329                APBPrescTable
 .rodata        0x08005331        0x4 Src/usbd_conf.o
 *(.rodata*)
 .rodata.str1.1
                0x08005335       0x42 Src/main.o
 .rodata.str1.1
                0x08005377       0x4f Src/usbd_desc.o
                0x080053c8                . = ALIGN (0x4)
 *fill*         0x080053c6        0x2 

.rel.dyn        0x080053c8        0x0
 .rel.iplt      0x080053c8        0x0 /home/adam/eclipse/plugins/fr.ac6.mcu.externaltools.arm-none.linux64_1.13.1.201703061524/tools/compiler/bin/../lib/gcc/arm-none-eabi/5.4.1/armv7e-m/fpu/fpv5-sp-d16/crtbegin.o

.ARM.extab
 *(.ARM.extab* .gnu.linkonce.armextab.*)

.ARM            0x080053c8        0x0
                0x080053c8                __exidx_start = .
 *(.ARM.exidx*)
                0x080053c8                __exidx_end = .

.preinit_array  0x080053c8        0x0
                0x080053c8                PROVIDE (__preinit_array_start, .)
 *(.preinit_array*)
                0x080053c8                PROVIDE (__preinit_array_end, .)

.init_array     0x080053c8        0x4
                0x080053c8                PROVIDE (__init_array_start, .)
 *(SORT(.init_array.*))
 *(.init_array*)
 .init_array    0x080053c8        0x4 /home/adam/eclipse/plugins/fr.ac6.mcu.externaltools.arm-none.linux64_1.13.1.201703061524/tools/compiler/bin/../lib/gcc/arm-none-eabi/5.4.1/armv7e-m/fpu/fpv5-sp-d16/crtbegin.o
                0x080053cc                PROVIDE (__init_array_end, .)

.fini_array     0x080053cc        0x4
                [!provide]                PROVIDE (__fini_array_start, .)
 *(SORT(.fini_array.*))
 *(.fini_array*)
 .fini_array    0x080053cc        0x4 /home/adam/eclipse/plugins/fr.ac6.mcu.externaltools.arm-none.linux64_1.13.1.201703061524/tools/compiler/bin/../lib/gcc/arm-none-eabi/5.4.1/armv7e-m/fpu/fpv5-sp-d16/crtbegin.o
                [!provide]                PROVIDE (__fini_array_end, .)
                0x080053d0                _sidata = LOADADDR (.data)

.data           0x20000000      0x16c load address 0x080053d0
                0x20000000                . = ALIGN (0x4)
                0x20000000                _sdata = .
 *(.data)
 .data          0x20000000       0xc0 Middlewares/ST/STM32_USB_Device_Library/Class/HID/Src/usbd_hid.o
                0x20000088                USBD_HID
 .data          0x200000c0        0x4 Src/system_stm32f7xx.o
                0x200000c0                SystemCoreClock
 .data          0x200000c4       0x44 Src/usbd_desc.o
                0x200000c4                USBD_FS_DeviceDesc
                0x200000d8                USBD_LangIDDesc
                0x200000dc                USBD_FS_BOSDesc
                0x200000e8                FS_Desc
 *(.data*)
 .data.impure_data
                0x20000108       0x60 /home/adam/eclipse/plugins/fr.ac6.mcu.externaltools.arm-none.linux64_1.13.1.201703061524/tools/compiler/bin/../lib/gcc/arm-none-eabi/5.4.1/../../../../arm-none-eabi/lib/armv7e-m/fpu/fpv5-sp-d16/libc_nano.a(lib_a-impure.o)
 .data._impure_ptr
                0x20000168        0x4 /home/adam/eclipse/plugins/fr.ac6.mcu.externaltools.arm-none.linux64_1.13.1.201703061524/tools/compiler/bin/../lib/gcc/arm-none-eabi/5.4.1/../../../../arm-none-eabi/lib/armv7e-m/fpu/fpv5-sp-d16/libc_nano.a(lib_a-impure.o)
                0x20000168                _impure_ptr
                0x2000016c                . = ALIGN (0x4)
                0x2000016c                _edata = .

.jcr            0x2000016c        0x0 load address 0x0800553c
 .jcr           0x2000016c        0x0 /home/adam/eclipse/plugins/fr.ac6.mcu.externaltools.arm-none.linux64_1.13.1.201703061524/tools/compiler/bin/../lib/gcc/arm-none-eabi/5.4.1/armv7e-m/fpu/fpv5-sp-d16/crtbegin.o

.igot.plt       0x2000016c        0x0 load address 0x0800553c
 .igot.plt      0x2000016c        0x0 /home/adam/eclipse/plugins/fr.ac6.mcu.externaltools.arm-none.linux64_1.13.1.201703061524/tools/compiler/bin/../lib/gcc/arm-none-eabi/5.4.1/armv7e-m/fpu/fpv5-sp-d16/crtbegin.o
                0x2000016c                . = ALIGN (0x4)

.bss            0x2000016c      0xae0 load address 0x0800553c
                0x2000016c                _sbss = .
                0x2000016c                __bss_start__ = _sbss
 *(.bss)
 .bss           0x2000016c       0x1c /home/adam/eclipse/plugins/fr.ac6.mcu.externaltools.arm-none.linux64_1.13.1.201703061524/tools/compiler/bin/../lib/gcc/arm-none-eabi/5.4.1/armv7e-m/fpu/fpv5-sp-d16/crtbegin.o
 .bss           0x20000188        0x1 Middlewares/ST/STM32_USB_Device_Library/Core/Src/usbd_ctlreq.o
 *fill*         0x20000189        0x3 
 .bss           0x2000018c        0x8 Src/fmc.o
 *(.bss*)
 .bss.__malloc_sbrk_start
                0x20000194        0x4 /home/adam/eclipse/plugins/fr.ac6.mcu.externaltools.arm-none.linux64_1.13.1.201703061524/tools/compiler/bin/../lib/gcc/arm-none-eabi/5.4.1/../../../../arm-none-eabi/lib/armv7e-m/fpu/fpv5-sp-d16/libc_nano.a(lib_a-nano-mallocr.o)
                0x20000194                __malloc_sbrk_start
 .bss.__malloc_free_list
                0x20000198        0x4 /home/adam/eclipse/plugins/fr.ac6.mcu.externaltools.arm-none.linux64_1.13.1.201703061524/tools/compiler/bin/../lib/gcc/arm-none-eabi/5.4.1/../../../../arm-none-eabi/lib/armv7e-m/fpu/fpv5-sp-d16/libc_nano.a(lib_a-nano-mallocr.o)
                0x20000198                __malloc_free_list
 .bss.heap_end.4169
                0x2000019c        0x4 /home/adam/eclipse/plugins/fr.ac6.mcu.externaltools.arm-none.linux64_1.13.1.201703061524/tools/compiler/bin/../lib/gcc/arm-none-eabi/5.4.1/../../../../arm-none-eabi/lib/armv7e-m/fpu/fpv5-sp-d16/libnosys.a(sbrk.o)
 *(COMMON)
 COMMON         0x200001a0        0x4 Drivers/STM32F7xx_HAL_Driver/Src/stm32f7xx_hal.o
                0x200001a0                uwTick
 COMMON         0x200001a4       0xb0 Src/dcmi.o
                0x200001a4                hdma_dcmi
                0x20000204                hdcmi
 COMMON         0x20000254       0x40 Src/dma2d.o
                0x20000254                hdma2d
 COMMON         0x20000294       0x34 Src/fmc.o
                0x20000294                hsdram1
 COMMON         0x200002c8       0x4c Src/i2c.o
                0x200002c8                hi2c1
 COMMON         0x20000314       0x32 Src/main.o
                0x20000314                info
 *fill*         0x20000346        0x2 
 COMMON         0x20000348       0x3c Src/stm32f7xx_hal_timebase_TIM.o
                0x20000348                htim1
 COMMON         0x20000384       0xe0 Src/usart.o
                0x20000384                huart1
                0x200003f4                huart2
 COMMON         0x20000464      0x224 Src/usb_device.o
                0x20000464                hUsbDeviceFS
 COMMON         0x20000688      0x3c0 Src/usbd_conf.o
                0x20000688                hpcd_USB_OTG_FS
 COMMON         0x20000a48      0x200 Src/usbd_desc.o
                0x20000a48                USBD_StrDesc
 COMMON         0x20000c48        0x4 /home/adam/eclipse/plugins/fr.ac6.mcu.externaltools.arm-none.linux64_1.13.1.201703061524/tools/compiler/bin/../lib/gcc/arm-none-eabi/5.4.1/../../../../arm-none-eabi/lib/armv7e-m/fpu/fpv5-sp-d16/libc_nano.a(lib_a-reent.o)
                0x20000c48                errno
                0x20000c4c                . = ALIGN (0x4)
                0x20000c4c                _ebss = .
                0x20000c4c                __bss_end__ = _ebss

._user_heap_stack
                0x20000c4c      0x604 load address 0x0800553c
                0x20000c50                . = ALIGN (0x8)
 *fill*         0x20000c4c        0x4 
                0x20000c50                PROVIDE (end, .)
                [!provide]                PROVIDE (_end, .)
                0x20000e50                . = (. + _Min_Heap_Size)
 *fill*         0x20000c50      0x200 
                0x20001250                . = (. + _Min_Stack_Size)
 *fill*         0x20000e50      0x400 
                0x20001250                . = ALIGN (0x8)

/DISCARD/
 libc.a(*)
 libm.a(*)
 libgcc.a(*)

.ARM.attributes
                0x00000000       0x30
 *(.ARM.attributes)
 .ARM.attributes
                0x00000000       0x22 /home/adam/eclipse/plugins/fr.ac6.mcu.externaltools.arm-none.linux64_1.13.1.201703061524/tools/compiler/bin/../lib/gcc/arm-none-eabi/5.4.1/armv7e-m/fpu/fpv5-sp-d16/crti.o
 .ARM.attributes
                0x00000022       0x34 /home/adam/eclipse/plugins/fr.ac6.mcu.externaltools.arm-none.linux64_1.13.1.201703061524/tools/compiler/bin/../lib/gcc/arm-none-eabi/5.4.1/armv7e-m/fpu/fpv5-sp-d16/crtbegin.o
 .ARM.attributes
                0x00000056       0x21 Drivers/CMSIS/Device/ST/STM32F7xx/Source/Templates/gcc/startup_stm32f746xx.o
 .ARM.attributes
                0x00000077       0x39 Drivers/STM32F7xx_HAL_Driver/Src/stm32f7xx_hal.o
 .ARM.attributes
                0x000000b0       0x39 Drivers/STM32F7xx_HAL_Driver/Src/stm32f7xx_hal_cortex.o
 .ARM.attributes
                0x000000e9       0x39 Drivers/STM32F7xx_HAL_Driver/Src/stm32f7xx_hal_dcmi.o
 .ARM.attributes
                0x00000122       0x39 Drivers/STM32F7xx_HAL_Driver/Src/stm32f7xx_hal_dma.o
 .ARM.attributes
                0x0000015b       0x39 Drivers/STM32F7xx_HAL_Driver/Src/stm32f7xx_hal_dma2d.o
 .ARM.attributes
                0x00000194       0x39 Drivers/STM32F7xx_HAL_Driver/Src/stm32f7xx_hal_dma_ex.o
 .ARM.attributes
                0x000001cd       0x39 Drivers/STM32F7xx_HAL_Driver/Src/stm32f7xx_hal_gpio.o
 .ARM.attributes
                0x00000206       0x39 Drivers/STM32F7xx_HAL_Driver/Src/stm32f7xx_hal_i2c.o
 .ARM.attributes
                0x0000023f       0x39 Drivers/STM32F7xx_HAL_Driver/Src/stm32f7xx_hal_i2c_ex.o
 .ARM.attributes
                0x00000278       0x39 Drivers/STM32F7xx_HAL_Driver/Src/stm32f7xx_hal_pcd.o
 .ARM.attributes
                0x000002b1       0x39 Drivers/STM32F7xx_HAL_Driver/Src/stm32f7xx_hal_pcd_ex.o
 .ARM.attributes
                0x000002ea       0x39 Drivers/STM32F7xx_HAL_Driver/Src/stm32f7xx_hal_rcc.o
 .ARM.attributes
                0x00000323       0x39 Drivers/STM32F7xx_HAL_Driver/Src/stm32f7xx_hal_rcc_ex.o
 .ARM.attributes
                0x0000035c       0x39 Drivers/STM32F7xx_HAL_Driver/Src/stm32f7xx_hal_sdram.o
 .ARM.attributes
                0x00000395       0x39 Drivers/STM32F7xx_HAL_Driver/Src/stm32f7xx_hal_tim.o
 .ARM.attributes
                0x000003ce       0x39 Drivers/STM32F7xx_HAL_Driver/Src/stm32f7xx_hal_tim_ex.o
 .ARM.attributes
                0x00000407       0x39 Drivers/STM32F7xx_HAL_Driver/Src/stm32f7xx_hal_uart.o
 .ARM.attributes
                0x00000440       0x39 Drivers/STM32F7xx_HAL_Driver/Src/stm32f7xx_ll_fmc.o
 .ARM.attributes
                0x00000479       0x39 Drivers/STM32F7xx_HAL_Driver/Src/stm32f7xx_ll_usb.o
 .ARM.attributes
                0x000004b2       0x39 Middlewares/ST/STM32_USB_Device_Library/Class/HID/Src/usbd_hid.o
 .ARM.attributes
                0x000004eb       0x39 Middlewares/ST/STM32_USB_Device_Library/Core/Src/usbd_core.o
 .ARM.attributes
                0x00000524       0x39 Middlewares/ST/STM32_USB_Device_Library/Core/Src/usbd_ctlreq.o
 .ARM.attributes
                0x0000055d       0x39 Middlewares/ST/STM32_USB_Device_Library/Core/Src/usbd_ioreq.o
 .ARM.attributes
                0x00000596       0x39 Src/dcmi.o
 .ARM.attributes
                0x000005cf       0x39 Src/dma.o
 .ARM.attributes
                0x00000608       0x39 Src/dma2d.o
 .ARM.attributes
                0x00000641       0x39 Src/fmc.o
 .ARM.attributes
                0x0000067a       0x39 Src/gpio.o
 .ARM.attributes
                0x000006b3       0x39 Src/i2c.o
 .ARM.attributes
                0x000006ec       0x39 Src/main.o
 .ARM.attributes
                0x00000725       0x39 Src/stm32f7xx_hal_msp.o
 .ARM.attributes
                0x0000075e       0x39 Src/stm32f7xx_hal_timebase_TIM.o
 .ARM.attributes
                0x00000797       0x39 Src/stm32f7xx_it.o
 .ARM.attributes
                0x000007d0       0x39 Src/system_stm32f7xx.o
 .ARM.attributes
                0x00000809       0x39 Src/usart.o
 .ARM.attributes
                0x00000842       0x39 Src/usb_device.o
 .ARM.attributes
                0x0000087b       0x39 Src/usbd_conf.o
 .ARM.attributes
                0x000008b4       0x39 Src/usbd_desc.o
 .ARM.attributes
                0x000008ed       0x34 /home/adam/eclipse/plugins/fr.ac6.mcu.externaltools.arm-none.linux64_1.13.1.201703061524/tools/compiler/bin/../lib/gcc/arm-none-eabi/5.4.1/../../../../arm-none-eabi/lib/armv7e-m/fpu/fpv5-sp-d16/libc_nano.a(lib_a-impure.o)
 .ARM.attributes
                0x00000921       0x34 /home/adam/eclipse/plugins/fr.ac6.mcu.externaltools.arm-none.linux64_1.13.1.201703061524/tools/compiler/bin/../lib/gcc/arm-none-eabi/5.4.1/../../../../arm-none-eabi/lib/armv7e-m/fpu/fpv5-sp-d16/libc_nano.a(lib_a-init.o)
 .ARM.attributes
                0x00000955       0x34 /home/adam/eclipse/plugins/fr.ac6.mcu.externaltools.arm-none.linux64_1.13.1.201703061524/tools/compiler/bin/../lib/gcc/arm-none-eabi/5.4.1/../../../../arm-none-eabi/lib/armv7e-m/fpu/fpv5-sp-d16/libc_nano.a(lib_a-malloc.o)
 .ARM.attributes
                0x00000989       0x34 /home/adam/eclipse/plugins/fr.ac6.mcu.externaltools.arm-none.linux64_1.13.1.201703061524/tools/compiler/bin/../lib/gcc/arm-none-eabi/5.4.1/../../../../arm-none-eabi/lib/armv7e-m/fpu/fpv5-sp-d16/libc_nano.a(lib_a-nano-freer.o)
 .ARM.attributes
                0x000009bd       0x34 /home/adam/eclipse/plugins/fr.ac6.mcu.externaltools.arm-none.linux64_1.13.1.201703061524/tools/compiler/bin/../lib/gcc/arm-none-eabi/5.4.1/../../../../arm-none-eabi/lib/armv7e-m/fpu/fpv5-sp-d16/libc_nano.a(lib_a-nano-mallocr.o)
 .ARM.attributes
                0x000009f1       0x34 /home/adam/eclipse/plugins/fr.ac6.mcu.externaltools.arm-none.linux64_1.13.1.201703061524/tools/compiler/bin/../lib/gcc/arm-none-eabi/5.4.1/../../../../arm-none-eabi/lib/armv7e-m/fpu/fpv5-sp-d16/libc_nano.a(lib_a-sbrkr.o)
 .ARM.attributes
                0x00000a25       0x34 /home/adam/eclipse/plugins/fr.ac6.mcu.externaltools.arm-none.linux64_1.13.1.201703061524/tools/compiler/bin/../lib/gcc/arm-none-eabi/5.4.1/../../../../arm-none-eabi/lib/armv7e-m/fpu/fpv5-sp-d16/libc_nano.a(lib_a-strcpy.o)
 .ARM.attributes
                0x00000a59       0x1b /home/adam/eclipse/plugins/fr.ac6.mcu.externaltools.arm-none.linux64_1.13.1.201703061524/tools/compiler/bin/../lib/gcc/arm-none-eabi/5.4.1/../../../../arm-none-eabi/lib/armv7e-m/fpu/fpv5-sp-d16/libc_nano.a(lib_a-strlen.o)
 .ARM.attributes
                0x00000a74       0x34 /home/adam/eclipse/plugins/fr.ac6.mcu.externaltools.arm-none.linux64_1.13.1.201703061524/tools/compiler/bin/../lib/gcc/arm-none-eabi/5.4.1/../../../../arm-none-eabi/lib/armv7e-m/fpu/fpv5-sp-d16/libc_nano.a(lib_a-mlock.o)
 .ARM.attributes
                0x00000aa8       0x34 /home/adam/eclipse/plugins/fr.ac6.mcu.externaltools.arm-none.linux64_1.13.1.201703061524/tools/compiler/bin/../lib/gcc/arm-none-eabi/5.4.1/../../../../arm-none-eabi/lib/armv7e-m/fpu/fpv5-sp-d16/libc_nano.a(lib_a-reent.o)
 .ARM.attributes
                0x00000adc       0x34 /home/adam/eclipse/plugins/fr.ac6.mcu.externaltools.arm-none.linux64_1.13.1.201703061524/tools/compiler/bin/../lib/gcc/arm-none-eabi/5.4.1/../../../../arm-none-eabi/lib/armv7e-m/fpu/fpv5-sp-d16/libnosys.a(sbrk.o)
 .ARM.attributes
                0x00000b10       0x22 /home/adam/eclipse/plugins/fr.ac6.mcu.externaltools.arm-none.linux64_1.13.1.201703061524/tools/compiler/bin/../lib/gcc/arm-none-eabi/5.4.1/armv7e-m/fpu/fpv5-sp-d16/crtn.o
OUTPUT(stm32cam6.elf elf32-littlearm)

.debug_line     0x00000000    0x1ae5e
 .debug_line    0x00000000       0xae Drivers/CMSIS/Device/ST/STM32F7xx/Source/Templates/gcc/startup_stm32f746xx.o
 .debug_line    0x000000ae      0x9ce Drivers/STM32F7xx_HAL_Driver/Src/stm32f7xx_hal.o
 .debug_line    0x00000a7c      0xa73 Drivers/STM32F7xx_HAL_Driver/Src/stm32f7xx_hal_cortex.o
 .debug_line    0x000014ef      0xb6c Drivers/STM32F7xx_HAL_Driver/Src/stm32f7xx_hal_dcmi.o
 .debug_line    0x0000205b      0xb4e Drivers/STM32F7xx_HAL_Driver/Src/stm32f7xx_hal_dma.o
 .debug_line    0x00002ba9      0xec9 Drivers/STM32F7xx_HAL_Driver/Src/stm32f7xx_hal_dma2d.o
 .debug_line    0x00003a72      0xb7e Drivers/STM32F7xx_HAL_Driver/Src/stm32f7xx_hal_dma_ex.o
 .debug_line    0x000045f0      0xa30 Drivers/STM32F7xx_HAL_Driver/Src/stm32f7xx_hal_gpio.o
 .debug_line    0x00005020     0x1acf Drivers/STM32F7xx_HAL_Driver/Src/stm32f7xx_hal_i2c.o
 .debug_line    0x00006aef      0x8ce Drivers/STM32F7xx_HAL_Driver/Src/stm32f7xx_hal_i2c_ex.o
 .debug_line    0x000073bd      0xd51 Drivers/STM32F7xx_HAL_Driver/Src/stm32f7xx_hal_pcd.o
 .debug_line    0x0000810e      0x8b8 Drivers/STM32F7xx_HAL_Driver/Src/stm32f7xx_hal_pcd_ex.o
 .debug_line    0x000089c6      0xbff Drivers/STM32F7xx_HAL_Driver/Src/stm32f7xx_hal_rcc.o
 .debug_line    0x000095c5      0xc67 Drivers/STM32F7xx_HAL_Driver/Src/stm32f7xx_hal_rcc_ex.o
 .debug_line    0x0000a22c      0xb48 Drivers/STM32F7xx_HAL_Driver/Src/stm32f7xx_hal_sdram.o
 .debug_line    0x0000ad74     0x1777 Drivers/STM32F7xx_HAL_Driver/Src/stm32f7xx_hal_tim.o
 .debug_line    0x0000c4eb      0xe15 Drivers/STM32F7xx_HAL_Driver/Src/stm32f7xx_hal_tim_ex.o
 .debug_line    0x0000d300     0x1137 Drivers/STM32F7xx_HAL_Driver/Src/stm32f7xx_hal_uart.o
 .debug_line    0x0000e437      0xaab Drivers/STM32F7xx_HAL_Driver/Src/stm32f7xx_ll_fmc.o
 .debug_line    0x0000eee2      0xe5d Drivers/STM32F7xx_HAL_Driver/Src/stm32f7xx_ll_usb.o
 .debug_line    0x0000fd3f      0xa67 Middlewares/ST/STM32_USB_Device_Library/Class/HID/Src/usbd_hid.o
 .debug_line    0x000107a6      0xaf5 Middlewares/ST/STM32_USB_Device_Library/Core/Src/usbd_core.o
 .debug_line    0x0001129b      0xa46 Middlewares/ST/STM32_USB_Device_Library/Core/Src/usbd_ctlreq.o
 .debug_line    0x00011ce1      0x9ba Middlewares/ST/STM32_USB_Device_Library/Core/Src/usbd_ioreq.o
 .debug_line    0x0001269b      0x8f5 Src/dcmi.o
 .debug_line    0x00012f90      0x836 Src/dma.o
 .debug_line    0x000137c6      0x865 Src/dma2d.o
 .debug_line    0x0001402b      0x90d Src/fmc.o
 .debug_line    0x00014938      0x8bf Src/gpio.o
 .debug_line    0x000151f7      0x87a Src/i2c.o
 .debug_line    0x00015a71      0xa9b Src/main.o
 .debug_line    0x0001650c      0x839 Src/stm32f7xx_hal_msp.o
 .debug_line    0x00016d45      0x878 Src/stm32f7xx_hal_timebase_TIM.o
 .debug_line    0x000175bd      0x8e3 Src/stm32f7xx_it.o
 .debug_line    0x00017ea0      0x84a Src/system_stm32f7xx.o
 .debug_line    0x000186ea      0x8bf Src/usart.o
 .debug_line    0x00018fa9      0x995 Src/usb_device.o
 .debug_line    0x0001993e      0xb7d Src/usbd_conf.o
 .debug_line    0x0001a4bb      0x9a3 Src/usbd_desc.o

.debug_info     0x00000000    0x21b0d
 .debug_info    0x00000000       0x99 Drivers/CMSIS/Device/ST/STM32F7xx/Source/Templates/gcc/startup_stm32f746xx.o
 .debug_info    0x00000099      0x8e7 Drivers/STM32F7xx_HAL_Driver/Src/stm32f7xx_hal.o
 .debug_info    0x00000980     0x1121 Drivers/STM32F7xx_HAL_Driver/Src/stm32f7xx_hal_cortex.o
 .debug_info    0x00001aa1      0xb3c Drivers/STM32F7xx_HAL_Driver/Src/stm32f7xx_hal_dcmi.o
 .debug_info    0x000025dd      0xa2c Drivers/STM32F7xx_HAL_Driver/Src/stm32f7xx_hal_dma.o
 .debug_info    0x00003009     0x132a Drivers/STM32F7xx_HAL_Driver/Src/stm32f7xx_hal_dma2d.o
 .debug_info    0x00004333      0x583 Drivers/STM32F7xx_HAL_Driver/Src/stm32f7xx_hal_dma_ex.o
 .debug_info    0x000048b6      0x758 Drivers/STM32F7xx_HAL_Driver/Src/stm32f7xx_hal_gpio.o
 .debug_info    0x0000500e     0x2eb7 Drivers/STM32F7xx_HAL_Driver/Src/stm32f7xx_hal_i2c.o
 .debug_info    0x00007ec5      0x6a8 Drivers/STM32F7xx_HAL_Driver/Src/stm32f7xx_hal_i2c_ex.o
 .debug_info    0x0000856d     0x13f9 Drivers/STM32F7xx_HAL_Driver/Src/stm32f7xx_hal_pcd.o
 .debug_info    0x00009966      0x709 Drivers/STM32F7xx_HAL_Driver/Src/stm32f7xx_hal_pcd_ex.o
 .debug_info    0x0000a06f      0xcd3 Drivers/STM32F7xx_HAL_Driver/Src/stm32f7xx_hal_rcc.o
 .debug_info    0x0000ad42      0xf6c Drivers/STM32F7xx_HAL_Driver/Src/stm32f7xx_hal_rcc_ex.o
 .debug_info    0x0000bcae      0xcf7 Drivers/STM32F7xx_HAL_Driver/Src/stm32f7xx_hal_sdram.o
 .debug_info    0x0000c9a5     0x2d41 Drivers/STM32F7xx_HAL_Driver/Src/stm32f7xx_hal_tim.o
 .debug_info    0x0000f6e6     0x131e Drivers/STM32F7xx_HAL_Driver/Src/stm32f7xx_hal_tim_ex.o
 .debug_info    0x00010a04     0x17c2 Drivers/STM32F7xx_HAL_Driver/Src/stm32f7xx_hal_uart.o
 .debug_info    0x000121c6      0xc8c Drivers/STM32F7xx_HAL_Driver/Src/stm32f7xx_ll_fmc.o
 .debug_info    0x00012e52     0x1757 Drivers/STM32F7xx_HAL_Driver/Src/stm32f7xx_ll_usb.o
 .debug_info    0x000145a9      0x8e5 Middlewares/ST/STM32_USB_Device_Library/Class/HID/Src/usbd_hid.o
 .debug_info    0x00014e8e      0xbe9 Middlewares/ST/STM32_USB_Device_Library/Core/Src/usbd_core.o
 .debug_info    0x00015a77      0xbd7 Middlewares/ST/STM32_USB_Device_Library/Core/Src/usbd_ctlreq.o
 .debug_info    0x0001664e      0x771 Middlewares/ST/STM32_USB_Device_Library/Core/Src/usbd_ioreq.o
 .debug_info    0x00016dbf      0xb50 Src/dcmi.o
 .debug_info    0x0001790f      0x590 Src/dma.o
 .debug_info    0x00017e9f      0x6a4 Src/dma2d.o
 .debug_info    0x00018543      0xaec Src/fmc.o
 .debug_info    0x0001902f      0x6cf Src/gpio.o
 .debug_info    0x000196fe      0xa36 Src/i2c.o
 .debug_info    0x0001a134     0x1e0a Src/main.o
 .debug_info    0x0001bf3e      0x454 Src/stm32f7xx_hal_msp.o
 .debug_info    0x0001c392      0xbf8 Src/stm32f7xx_hal_timebase_TIM.o
 .debug_info    0x0001cf8a      0xe6d Src/stm32f7xx_it.o
 .debug_info    0x0001ddf7      0x6e9 Src/system_stm32f7xx.o
 .debug_info    0x0001e4e0      0xdb6 Src/usart.o
 .debug_info    0x0001f296      0x553 Src/usb_device.o
 .debug_info    0x0001f7e9     0x1dc6 Src/usbd_conf.o
 .debug_info    0x000215af      0x55e Src/usbd_desc.o

.debug_abbrev   0x00000000     0x518c
 .debug_abbrev  0x00000000       0x12 Drivers/CMSIS/Device/ST/STM32F7xx/Source/Templates/gcc/startup_stm32f746xx.o
 .debug_abbrev  0x00000012      0x1e5 Drivers/STM32F7xx_HAL_Driver/Src/stm32f7xx_hal.o
 .debug_abbrev  0x000001f7      0x332 Drivers/STM32F7xx_HAL_Driver/Src/stm32f7xx_hal_cortex.o
 .debug_abbrev  0x00000529      0x2fc Drivers/STM32F7xx_HAL_Driver/Src/stm32f7xx_hal_dcmi.o
 .debug_abbrev  0x00000825      0x2e0 Drivers/STM32F7xx_HAL_Driver/Src/stm32f7xx_hal_dma.o
 .debug_abbrev  0x00000b05      0x32d Drivers/STM32F7xx_HAL_Driver/Src/stm32f7xx_hal_dma2d.o
 .debug_abbrev  0x00000e32      0x16c Drivers/STM32F7xx_HAL_Driver/Src/stm32f7xx_hal_dma_ex.o
 .debug_abbrev  0x00000f9e      0x1cb Drivers/STM32F7xx_HAL_Driver/Src/stm32f7xx_hal_gpio.o
 .debug_abbrev  0x00001169      0x343 Drivers/STM32F7xx_HAL_Driver/Src/stm32f7xx_hal_i2c.o
 .debug_abbrev  0x000014ac      0x132 Drivers/STM32F7xx_HAL_Driver/Src/stm32f7xx_hal_i2c_ex.o
 .debug_abbrev  0x000015de      0x2f0 Drivers/STM32F7xx_HAL_Driver/Src/stm32f7xx_hal_pcd.o
 .debug_abbrev  0x000018ce      0x1aa Drivers/STM32F7xx_HAL_Driver/Src/stm32f7xx_hal_pcd_ex.o
 .debug_abbrev  0x00001a78      0x2dd Drivers/STM32F7xx_HAL_Driver/Src/stm32f7xx_hal_rcc.o
 .debug_abbrev  0x00001d55      0x231 Drivers/STM32F7xx_HAL_Driver/Src/stm32f7xx_hal_rcc_ex.o
 .debug_abbrev  0x00001f86      0x239 Drivers/STM32F7xx_HAL_Driver/Src/stm32f7xx_hal_sdram.o
 .debug_abbrev  0x000021bf      0x314 Drivers/STM32F7xx_HAL_Driver/Src/stm32f7xx_hal_tim.o
 .debug_abbrev  0x000024d3      0x273 Drivers/STM32F7xx_HAL_Driver/Src/stm32f7xx_hal_tim_ex.o
 .debug_abbrev  0x00002746      0x32c Drivers/STM32F7xx_HAL_Driver/Src/stm32f7xx_hal_uart.o
 .debug_abbrev  0x00002a72      0x183 Drivers/STM32F7xx_HAL_Driver/Src/stm32f7xx_ll_fmc.o
 .debug_abbrev  0x00002bf5      0x2e1 Drivers/STM32F7xx_HAL_Driver/Src/stm32f7xx_ll_usb.o
 .debug_abbrev  0x00002ed6      0x1d7 Middlewares/ST/STM32_USB_Device_Library/Class/HID/Src/usbd_hid.o
 .debug_abbrev  0x000030ad      0x273 Middlewares/ST/STM32_USB_Device_Library/Core/Src/usbd_core.o
 .debug_abbrev  0x00003320      0x2c7 Middlewares/ST/STM32_USB_Device_Library/Core/Src/usbd_ctlreq.o
 .debug_abbrev  0x000035e7      0x158 Middlewares/ST/STM32_USB_Device_Library/Core/Src/usbd_ioreq.o
 .debug_abbrev  0x0000373f      0x1c2 Src/dcmi.o
 .debug_abbrev  0x00003901      0x124 Src/dma.o
 .debug_abbrev  0x00003a25      0x1ba Src/dma2d.o
 .debug_abbrev  0x00003bdf      0x237 Src/fmc.o
 .debug_abbrev  0x00003e16      0x151 Src/gpio.o
 .debug_abbrev  0x00003f67      0x1da Src/i2c.o
 .debug_abbrev  0x00004141      0x2f9 Src/main.o
 .debug_abbrev  0x0000443a       0xc5 Src/stm32f7xx_hal_msp.o
 .debug_abbrev  0x000044ff      0x1d2 Src/stm32f7xx_hal_timebase_TIM.o
 .debug_abbrev  0x000046d1      0x1ec Src/stm32f7xx_it.o
 .debug_abbrev  0x000048bd      0x120 Src/system_stm32f7xx.o
 .debug_abbrev  0x000049dd      0x1bd Src/usart.o
 .debug_abbrev  0x00004b9a      0x16a Src/usb_device.o
 .debug_abbrev  0x00004d04      0x2ae Src/usbd_conf.o
 .debug_abbrev  0x00004fb2      0x1da Src/usbd_desc.o

.debug_aranges  0x00000000     0x1560
 .debug_aranges
                0x00000000       0x28 Drivers/CMSIS/Device/ST/STM32F7xx/Source/Templates/gcc/startup_stm32f746xx.o
 .debug_aranges
                0x00000028       0xc8 Drivers/STM32F7xx_HAL_Driver/Src/stm32f7xx_hal.o
 .debug_aranges
                0x000000f0       0xa8 Drivers/STM32F7xx_HAL_Driver/Src/stm32f7xx_hal_cortex.o
 .debug_aranges
                0x00000198       0x90 Drivers/STM32F7xx_HAL_Driver/Src/stm32f7xx_hal_dcmi.o
 .debug_aranges
                0x00000228       0x80 Drivers/STM32F7xx_HAL_Driver/Src/stm32f7xx_hal_dma.o
 .debug_aranges
                0x000002a8       0xf0 Drivers/STM32F7xx_HAL_Driver/Src/stm32f7xx_hal_dma2d.o
 .debug_aranges
                0x00000398       0x30 Drivers/STM32F7xx_HAL_Driver/Src/stm32f7xx_hal_dma_ex.o
 .debug_aranges
                0x000003c8       0x58 Drivers/STM32F7xx_HAL_Driver/Src/stm32f7xx_hal_gpio.o
 .debug_aranges
                0x00000420      0x1f8 Drivers/STM32F7xx_HAL_Driver/Src/stm32f7xx_hal_i2c.o
 .debug_aranges
                0x00000618       0x28 Drivers/STM32F7xx_HAL_Driver/Src/stm32f7xx_hal_i2c_ex.o
 .debug_aranges
                0x00000640       0xc0 Drivers/STM32F7xx_HAL_Driver/Src/stm32f7xx_hal_pcd.o
 .debug_aranges
                0x00000700       0x40 Drivers/STM32F7xx_HAL_Driver/Src/stm32f7xx_hal_pcd_ex.o
 .debug_aranges
                0x00000740       0x88 Drivers/STM32F7xx_HAL_Driver/Src/stm32f7xx_hal_rcc.o
 .debug_aranges
                0x000007c8       0x30 Drivers/STM32F7xx_HAL_Driver/Src/stm32f7xx_hal_rcc_ex.o
 .debug_aranges
                0x000007f8       0xb0 Drivers/STM32F7xx_HAL_Driver/Src/stm32f7xx_hal_sdram.o
 .debug_aranges
                0x000008a8      0x260 Drivers/STM32F7xx_HAL_Driver/Src/stm32f7xx_hal_tim.o
 .debug_aranges
                0x00000b08      0x120 Drivers/STM32F7xx_HAL_Driver/Src/stm32f7xx_hal_tim_ex.o
 .debug_aranges
                0x00000c28      0x148 Drivers/STM32F7xx_HAL_Driver/Src/stm32f7xx_hal_uart.o
 .debug_aranges
                0x00000d70       0xc8 Drivers/STM32F7xx_HAL_Driver/Src/stm32f7xx_ll_fmc.o
 .debug_aranges
                0x00000e38      0x180 Drivers/STM32F7xx_HAL_Driver/Src/stm32f7xx_ll_usb.o
 .debug_aranges
                0x00000fb8       0x58 Middlewares/ST/STM32_USB_Device_Library/Class/HID/Src/usbd_hid.o
 .debug_aranges
                0x00001010       0xa8 Middlewares/ST/STM32_USB_Device_Library/Core/Src/usbd_core.o
 .debug_aranges
                0x000010b8       0x48 Middlewares/ST/STM32_USB_Device_Library/Core/Src/usbd_ctlreq.o
 .debug_aranges
                0x00001100       0x50 Middlewares/ST/STM32_USB_Device_Library/Core/Src/usbd_ioreq.o
 .debug_aranges
                0x00001150       0x38 Src/dcmi.o
 .debug_aranges
                0x00001188       0x20 Src/dma.o
 .debug_aranges
                0x000011a8       0x30 Src/dma2d.o
 .debug_aranges
                0x000011d8       0x30 Src/fmc.o
 .debug_aranges
                0x00001208       0x20 Src/gpio.o
 .debug_aranges
                0x00001228       0x30 Src/i2c.o
 .debug_aranges
                0x00001258       0x70 Src/main.o
 .debug_aranges
                0x000012c8       0x20 Src/stm32f7xx_hal_msp.o
 .debug_aranges
                0x000012e8       0x30 Src/stm32f7xx_hal_timebase_TIM.o
 .debug_aranges
                0x00001318       0x70 Src/stm32f7xx_it.o
 .debug_aranges
                0x00001388       0x28 Src/system_stm32f7xx.o
 .debug_aranges
                0x000013b0       0x38 Src/usart.o
 .debug_aranges
                0x000013e8       0x20 Src/usb_device.o
 .debug_aranges
                0x00001408      0x100 Src/usbd_conf.o
 .debug_aranges
                0x00001508       0x58 Src/usbd_desc.o

.debug_ranges   0x00000000     0x1c70
 .debug_ranges  0x00000000       0x20 Drivers/CMSIS/Device/ST/STM32F7xx/Source/Templates/gcc/startup_stm32f746xx.o
 .debug_ranges  0x00000020       0xb8 Drivers/STM32F7xx_HAL_Driver/Src/stm32f7xx_hal.o
 .debug_ranges  0x000000d8      0x150 Drivers/STM32F7xx_HAL_Driver/Src/stm32f7xx_hal_cortex.o
 .debug_ranges  0x00000228       0xb0 Drivers/STM32F7xx_HAL_Driver/Src/stm32f7xx_hal_dcmi.o
 .debug_ranges  0x000002d8       0xa0 Drivers/STM32F7xx_HAL_Driver/Src/stm32f7xx_hal_dma.o
 .debug_ranges  0x00000378      0x1b8 Drivers/STM32F7xx_HAL_Driver/Src/stm32f7xx_hal_dma2d.o
 .debug_ranges  0x00000530       0x50 Drivers/STM32F7xx_HAL_Driver/Src/stm32f7xx_hal_dma_ex.o
 .debug_ranges  0x00000580       0x70 Drivers/STM32F7xx_HAL_Driver/Src/stm32f7xx_hal_gpio.o
 .debug_ranges  0x000005f0      0x250 Drivers/STM32F7xx_HAL_Driver/Src/stm32f7xx_hal_i2c.o
 .debug_ranges  0x00000840       0x18 Drivers/STM32F7xx_HAL_Driver/Src/stm32f7xx_hal_i2c_ex.o
 .debug_ranges  0x00000858       0xb0 Drivers/STM32F7xx_HAL_Driver/Src/stm32f7xx_hal_pcd.o
 .debug_ranges  0x00000908       0x30 Drivers/STM32F7xx_HAL_Driver/Src/stm32f7xx_hal_pcd_ex.o
 .debug_ranges  0x00000938      0x1b0 Drivers/STM32F7xx_HAL_Driver/Src/stm32f7xx_hal_rcc.o
 .debug_ranges  0x00000ae8      0x320 Drivers/STM32F7xx_HAL_Driver/Src/stm32f7xx_hal_rcc_ex.o
 .debug_ranges  0x00000e08       0xa0 Drivers/STM32F7xx_HAL_Driver/Src/stm32f7xx_hal_sdram.o
 .debug_ranges  0x00000ea8      0x2e8 Drivers/STM32F7xx_HAL_Driver/Src/stm32f7xx_hal_tim.o
 .debug_ranges  0x00001190      0x110 Drivers/STM32F7xx_HAL_Driver/Src/stm32f7xx_hal_tim_ex.o
 .debug_ranges  0x000012a0      0x138 Drivers/STM32F7xx_HAL_Driver/Src/stm32f7xx_hal_uart.o
 .debug_ranges  0x000013d8       0xb8 Drivers/STM32F7xx_HAL_Driver/Src/stm32f7xx_ll_fmc.o
 .debug_ranges  0x00001490      0x170 Drivers/STM32F7xx_HAL_Driver/Src/stm32f7xx_ll_usb.o
 .debug_ranges  0x00001600       0x48 Middlewares/ST/STM32_USB_Device_Library/Class/HID/Src/usbd_hid.o
 .debug_ranges  0x00001648       0x98 Middlewares/ST/STM32_USB_Device_Library/Core/Src/usbd_core.o
 .debug_ranges  0x000016e0       0x38 Middlewares/ST/STM32_USB_Device_Library/Core/Src/usbd_ctlreq.o
 .debug_ranges  0x00001718       0x40 Middlewares/ST/STM32_USB_Device_Library/Core/Src/usbd_ioreq.o
 .debug_ranges  0x00001758       0x58 Src/dcmi.o
 .debug_ranges  0x000017b0       0x40 Src/dma.o
 .debug_ranges  0x000017f0       0x20 Src/dma2d.o
 .debug_ranges  0x00001810       0x80 Src/fmc.o
 .debug_ranges  0x00001890       0x70 Src/gpio.o
 .debug_ranges  0x00001900       0x20 Src/i2c.o
 .debug_ranges  0x00001920       0xb0 Src/main.o
 .debug_ranges  0x000019d0       0x10 Src/stm32f7xx_hal_msp.o
 .debug_ranges  0x000019e0       0x40 Src/stm32f7xx_hal_timebase_TIM.o
 .debug_ranges  0x00001a20       0x60 Src/stm32f7xx_it.o
 .debug_ranges  0x00001a80       0x18 Src/system_stm32f7xx.o
 .debug_ranges  0x00001a98       0x58 Src/usart.o
 .debug_ranges  0x00001af0       0x10 Src/usb_device.o
 .debug_ranges  0x00001b00      0x128 Src/usbd_conf.o
 .debug_ranges  0x00001c28       0x48 Src/usbd_desc.o

.debug_loc      0x00000000    0x116a6
 .debug_loc     0x00000000       0x6a Drivers/STM32F7xx_HAL_Driver/Src/stm32f7xx_hal.o
 .debug_loc     0x0000006a      0x4ee Drivers/STM32F7xx_HAL_Driver/Src/stm32f7xx_hal_cortex.o
 .debug_loc     0x00000558      0x61e Drivers/STM32F7xx_HAL_Driver/Src/stm32f7xx_hal_dcmi.o
 .debug_loc     0x00000b76      0x7db Drivers/STM32F7xx_HAL_Driver/Src/stm32f7xx_hal_dma.o
 .debug_loc     0x00001351     0x108a Drivers/STM32F7xx_HAL_Driver/Src/stm32f7xx_hal_dma2d.o
 .debug_loc     0x000023db      0x450 Drivers/STM32F7xx_HAL_Driver/Src/stm32f7xx_hal_dma_ex.o
 .debug_loc     0x0000282b      0x34f Drivers/STM32F7xx_HAL_Driver/Src/stm32f7xx_hal_gpio.o
 .debug_loc     0x00002b7a     0x351a Drivers/STM32F7xx_HAL_Driver/Src/stm32f7xx_hal_i2c.o
 .debug_loc     0x00006094      0x102 Drivers/STM32F7xx_HAL_Driver/Src/stm32f7xx_hal_i2c_ex.o
 .debug_loc     0x00006196      0xbe0 Drivers/STM32F7xx_HAL_Driver/Src/stm32f7xx_hal_pcd.o
 .debug_loc     0x00006d76      0x127 Drivers/STM32F7xx_HAL_Driver/Src/stm32f7xx_hal_pcd_ex.o
 .debug_loc     0x00006e9d      0x49b Drivers/STM32F7xx_HAL_Driver/Src/stm32f7xx_hal_rcc.o
 .debug_loc     0x00007338      0x9b4 Drivers/STM32F7xx_HAL_Driver/Src/stm32f7xx_hal_rcc_ex.o
 .debug_loc     0x00007cec      0x9b7 Drivers/STM32F7xx_HAL_Driver/Src/stm32f7xx_hal_sdram.o
 .debug_loc     0x000086a3     0x2f22 Drivers/STM32F7xx_HAL_Driver/Src/stm32f7xx_hal_tim.o
 .debug_loc     0x0000b5c5      0xdb1 Drivers/STM32F7xx_HAL_Driver/Src/stm32f7xx_hal_tim_ex.o
 .debug_loc     0x0000c376     0x127c Drivers/STM32F7xx_HAL_Driver/Src/stm32f7xx_hal_uart.o
 .debug_loc     0x0000d5f2      0x7ca Drivers/STM32F7xx_HAL_Driver/Src/stm32f7xx_ll_fmc.o
 .debug_loc     0x0000ddbc     0x1483 Drivers/STM32F7xx_HAL_Driver/Src/stm32f7xx_ll_usb.o
 .debug_loc     0x0000f23f      0x430 Middlewares/ST/STM32_USB_Device_Library/Class/HID/Src/usbd_hid.o
 .debug_loc     0x0000f66f      0x5d9 Middlewares/ST/STM32_USB_Device_Library/Core/Src/usbd_core.o
 .debug_loc     0x0000fc48      0x6d9 Middlewares/ST/STM32_USB_Device_Library/Core/Src/usbd_ctlreq.o
 .debug_loc     0x00010321      0x23c Middlewares/ST/STM32_USB_Device_Library/Core/Src/usbd_ioreq.o
 .debug_loc     0x0001055d       0xbb Src/dcmi.o
 .debug_loc     0x00010618       0x4d Src/fmc.o
 .debug_loc     0x00010665       0x4d Src/i2c.o
 .debug_loc     0x000106b2      0x17c Src/main.o
 .debug_loc     0x0001082e       0x94 Src/stm32f7xx_hal_timebase_TIM.o
 .debug_loc     0x000108c2       0xec Src/system_stm32f7xx.o
 .debug_loc     0x000109ae       0x7f Src/usart.o
 .debug_loc     0x00010a2d      0x9e5 Src/usbd_conf.o
 .debug_loc     0x00011412      0x294 Src/usbd_desc.o

.debug_macro    0x00000000    0x1ed5f
 .debug_macro   0x00000000      0x39b Drivers/STM32F7xx_HAL_Driver/Src/stm32f7xx_hal.o
 .debug_macro   0x0000039b      0x89e Drivers/STM32F7xx_HAL_Driver/Src/stm32f7xx_hal.o
 .debug_macro   0x00000c39      0x196 Drivers/STM32F7xx_HAL_Driver/Src/stm32f7xx_hal.o
 .debug_macro   0x00000dcf       0x2e Drivers/STM32F7xx_HAL_Driver/Src/stm32f7xx_hal.o
 .debug_macro   0x00000dfd       0x3b Drivers/STM32F7xx_HAL_Driver/Src/stm32f7xx_hal.o
 .debug_macro   0x00000e38       0x22 Drivers/STM32F7xx_HAL_Driver/Src/stm32f7xx_hal.o
 .debug_macro   0x00000e5a       0x87 Drivers/STM32F7xx_HAL_Driver/Src/stm32f7xx_hal.o
 .debug_macro   0x00000ee1       0x44 Drivers/STM32F7xx_HAL_Driver/Src/stm32f7xx_hal.o
 .debug_macro   0x00000f25       0xfd Drivers/STM32F7xx_HAL_Driver/Src/stm32f7xx_hal.o
 .debug_macro   0x00001022       0x5e Drivers/STM32F7xx_HAL_Driver/Src/stm32f7xx_hal.o
 .debug_macro   0x00001080      0x1df Drivers/STM32F7xx_HAL_Driver/Src/stm32f7xx_hal.o
 .debug_macro   0x0000125f       0x35 Drivers/STM32F7xx_HAL_Driver/Src/stm32f7xx_hal.o
 .debug_macro   0x00001294       0x50 Drivers/STM32F7xx_HAL_Driver/Src/stm32f7xx_hal.o
 .debug_macro   0x000012e4     0x1114 Drivers/STM32F7xx_HAL_Driver/Src/stm32f7xx_hal.o
 .debug_macro   0x000023f8     0xaa9d Drivers/STM32F7xx_HAL_Driver/Src/stm32f7xx_hal.o
 .debug_macro   0x0000ce95       0x43 Drivers/STM32F7xx_HAL_Driver/Src/stm32f7xx_hal.o
 .debug_macro   0x0000ced8     0x3590 Drivers/STM32F7xx_HAL_Driver/Src/stm32f7xx_hal.o
 .debug_macro   0x00010468       0x52 Drivers/STM32F7xx_HAL_Driver/Src/stm32f7xx_hal.o
 .debug_macro   0x000104ba       0x35 Drivers/STM32F7xx_HAL_Driver/Src/stm32f7xx_hal.o
 .debug_macro   0x000104ef       0x9c Drivers/STM32F7xx_HAL_Driver/Src/stm32f7xx_hal.o
 .debug_macro   0x0001058b       0x16 Drivers/STM32F7xx_HAL_Driver/Src/stm32f7xx_hal.o
 .debug_macro   0x000105a1       0x97 Drivers/STM32F7xx_HAL_Driver/Src/stm32f7xx_hal.o
 .debug_macro   0x00010638      0x30d Drivers/STM32F7xx_HAL_Driver/Src/stm32f7xx_hal.o
 .debug_macro   0x00010945       0xfd Drivers/STM32F7xx_HAL_Driver/Src/stm32f7xx_hal.o
 .debug_macro   0x00010a42       0x10 Drivers/STM32F7xx_HAL_Driver/Src/stm32f7xx_hal.o
 .debug_macro   0x00010a52       0x52 Drivers/STM32F7xx_HAL_Driver/Src/stm32f7xx_hal.o
 .debug_macro   0x00010aa4       0x1f Drivers/STM32F7xx_HAL_Driver/Src/stm32f7xx_hal.o
 .debug_macro   0x00010ac3       0x43 Drivers/STM32F7xx_HAL_Driver/Src/stm32f7xx_hal.o
 .debug_macro   0x00010b06       0x20 Drivers/STM32F7xx_HAL_Driver/Src/stm32f7xx_hal.o
 .debug_macro   0x00010b26      0x187 Drivers/STM32F7xx_HAL_Driver/Src/stm32f7xx_hal.o
 .debug_macro   0x00010cad       0x10 Drivers/STM32F7xx_HAL_Driver/Src/stm32f7xx_hal.o
 .debug_macro   0x00010cbd       0x1c Drivers/STM32F7xx_HAL_Driver/Src/stm32f7xx_hal.o
 .debug_macro   0x00010cd9       0x52 Drivers/STM32F7xx_HAL_Driver/Src/stm32f7xx_hal.o
 .debug_macro   0x00010d2b       0x40 Drivers/STM32F7xx_HAL_Driver/Src/stm32f7xx_hal.o
 .debug_macro   0x00010d6b       0x10 Drivers/STM32F7xx_HAL_Driver/Src/stm32f7xx_hal.o
 .debug_macro   0x00010d7b       0x40 Drivers/STM32F7xx_HAL_Driver/Src/stm32f7xx_hal.o
 .debug_macro   0x00010dbb       0xd7 Drivers/STM32F7xx_HAL_Driver/Src/stm32f7xx_hal.o
 .debug_macro   0x00010e92       0x16 Drivers/STM32F7xx_HAL_Driver/Src/stm32f7xx_hal.o
 .debug_macro   0x00010ea8      0x18b Drivers/STM32F7xx_HAL_Driver/Src/stm32f7xx_hal.o
 .debug_macro   0x00011033       0x50 Drivers/STM32F7xx_HAL_Driver/Src/stm32f7xx_hal.o
 .debug_macro   0x00011083     0x18ad Drivers/STM32F7xx_HAL_Driver/Src/stm32f7xx_hal.o
 .debug_macro   0x00012930      0x6a2 Drivers/STM32F7xx_HAL_Driver/Src/stm32f7xx_hal.o
 .debug_macro   0x00012fd2      0x11e Drivers/STM32F7xx_HAL_Driver/Src/stm32f7xx_hal.o
 .debug_macro   0x000130f0      0x204 Drivers/STM32F7xx_HAL_Driver/Src/stm32f7xx_hal.o
 .debug_macro   0x000132f4       0x27 Drivers/STM32F7xx_HAL_Driver/Src/stm32f7xx_hal.o
 .debug_macro   0x0001331b      0x24f Drivers/STM32F7xx_HAL_Driver/Src/stm32f7xx_hal.o
 .debug_macro   0x0001356a       0x41 Drivers/STM32F7xx_HAL_Driver/Src/stm32f7xx_hal.o
 .debug_macro   0x000135ab       0x58 Drivers/STM32F7xx_HAL_Driver/Src/stm32f7xx_hal.o
 .debug_macro   0x00013603      0x23a Drivers/STM32F7xx_HAL_Driver/Src/stm32f7xx_hal.o
 .debug_macro   0x0001383d      0x20f Drivers/STM32F7xx_HAL_Driver/Src/stm32f7xx_hal.o
 .debug_macro   0x00013a4c      0x22c Drivers/STM32F7xx_HAL_Driver/Src/stm32f7xx_hal.o
 .debug_macro   0x00013c78      0x150 Drivers/STM32F7xx_HAL_Driver/Src/stm32f7xx_hal.o
 .debug_macro   0x00013dc8      0x25d Drivers/STM32F7xx_HAL_Driver/Src/stm32f7xx_hal.o
 .debug_macro   0x00014025       0x12 Drivers/STM32F7xx_HAL_Driver/Src/stm32f7xx_hal.o
 .debug_macro   0x00014037      0x516 Drivers/STM32F7xx_HAL_Driver/Src/stm32f7xx_hal.o
 .debug_macro   0x0001454d      0x209 Drivers/STM32F7xx_HAL_Driver/Src/stm32f7xx_hal.o
 .debug_macro   0x00014756       0x22 Drivers/STM32F7xx_HAL_Driver/Src/stm32f7xx_hal.o
 .debug_macro   0x00014778       0x90 Drivers/STM32F7xx_HAL_Driver/Src/stm32f7xx_hal.o
 .debug_macro   0x00014808      0x133 Drivers/STM32F7xx_HAL_Driver/Src/stm32f7xx_hal.o
 .debug_macro   0x0001493b      0x10c Drivers/STM32F7xx_HAL_Driver/Src/stm32f7xx_hal.o
 .debug_macro   0x00014a47       0x35 Drivers/STM32F7xx_HAL_Driver/Src/stm32f7xx_hal.o
 .debug_macro   0x00014a7c      0x677 Drivers/STM32F7xx_HAL_Driver/Src/stm32f7xx_hal.o
 .debug_macro   0x000150f3      0x24f Drivers/STM32F7xx_HAL_Driver/Src/stm32f7xx_hal.o
 .debug_macro   0x00015342      0x138 Drivers/STM32F7xx_HAL_Driver/Src/stm32f7xx_hal.o
 .debug_macro   0x0001547a      0x4e8 Drivers/STM32F7xx_HAL_Driver/Src/stm32f7xx_hal.o
 .debug_macro   0x00015962       0x47 Drivers/STM32F7xx_HAL_Driver/Src/stm32f7xx_hal.o
 .debug_macro   0x000159a9      0x1df Drivers/STM32F7xx_HAL_Driver/Src/stm32f7xx_hal.o
 .debug_macro   0x00015b88      0x119 Drivers/STM32F7xx_HAL_Driver/Src/stm32f7xx_hal.o
 .debug_macro   0x00015ca1      0x14a Drivers/STM32F7xx_HAL_Driver/Src/stm32f7xx_hal.o
 .debug_macro   0x00015deb      0x377 Drivers/STM32F7xx_HAL_Driver/Src/stm32f7xx_hal_cortex.o
 .debug_macro   0x00016162      0x39b Drivers/STM32F7xx_HAL_Driver/Src/stm32f7xx_hal_dcmi.o
 .debug_macro   0x000164fd      0x37e Drivers/STM32F7xx_HAL_Driver/Src/stm32f7xx_hal_dma.o
 .debug_macro   0x0001687b      0x3f6 Drivers/STM32F7xx_HAL_Driver/Src/stm32f7xx_hal_dma2d.o
 .debug_macro   0x00016c71      0x377 Drivers/STM32F7xx_HAL_Driver/Src/stm32f7xx_hal_dma_ex.o
 .debug_macro   0x00016fe8      0x3af Drivers/STM32F7xx_HAL_Driver/Src/stm32f7xx_hal_gpio.o
 .debug_macro   0x00017397      0x443 Drivers/STM32F7xx_HAL_Driver/Src/stm32f7xx_hal_i2c.o
 .debug_macro   0x000177da      0x377 Drivers/STM32F7xx_HAL_Driver/Src/stm32f7xx_hal_i2c_ex.o
 .debug_macro   0x00017b51      0x383 Drivers/STM32F7xx_HAL_Driver/Src/stm32f7xx_hal_pcd.o
 .debug_macro   0x00017ed4      0x377 Drivers/STM32F7xx_HAL_Driver/Src/stm32f7xx_hal_pcd_ex.o
 .debug_macro   0x0001824b      0x39b Drivers/STM32F7xx_HAL_Driver/Src/stm32f7xx_hal_rcc.o
 .debug_macro   0x000185e6      0x383 Drivers/STM32F7xx_HAL_Driver/Src/stm32f7xx_hal_rcc_ex.o
 .debug_macro   0x00018969      0x377 Drivers/STM32F7xx_HAL_Driver/Src/stm32f7xx_hal_sdram.o
 .debug_macro   0x00018ce0      0x378 Drivers/STM32F7xx_HAL_Driver/Src/stm32f7xx_hal_tim.o
 .debug_macro   0x00019058      0x383 Drivers/STM32F7xx_HAL_Driver/Src/stm32f7xx_hal_tim_ex.o
 .debug_macro   0x000193db      0x37f Drivers/STM32F7xx_HAL_Driver/Src/stm32f7xx_hal_uart.o
 .debug_macro   0x0001975a      0x377 Drivers/STM32F7xx_HAL_Driver/Src/stm32f7xx_ll_fmc.o
 .debug_macro   0x00019ad1      0x385 Drivers/STM32F7xx_HAL_Driver/Src/stm32f7xx_ll_usb.o
 .debug_macro   0x00019e56      0x427 Middlewares/ST/STM32_USB_Device_Library/Class/HID/Src/usbd_hid.o
 .debug_macro   0x0001a27d       0x4c Middlewares/ST/STM32_USB_Device_Library/Class/HID/Src/usbd_hid.o
 .debug_macro   0x0001a2c9       0x8d Middlewares/ST/STM32_USB_Device_Library/Class/HID/Src/usbd_hid.o
 .debug_macro   0x0001a356       0x4a Middlewares/ST/STM32_USB_Device_Library/Class/HID/Src/usbd_hid.o
 .debug_macro   0x0001a3a0       0x16 Middlewares/ST/STM32_USB_Device_Library/Class/HID/Src/usbd_hid.o
 .debug_macro   0x0001a3b6       0x35 Middlewares/ST/STM32_USB_Device_Library/Class/HID/Src/usbd_hid.o
 .debug_macro   0x0001a3eb       0x16 Middlewares/ST/STM32_USB_Device_Library/Class/HID/Src/usbd_hid.o
 .debug_macro   0x0001a401       0x29 Middlewares/ST/STM32_USB_Device_Library/Class/HID/Src/usbd_hid.o
 .debug_macro   0x0001a42a       0x16 Middlewares/ST/STM32_USB_Device_Library/Class/HID/Src/usbd_hid.o
 .debug_macro   0x0001a440      0x150 Middlewares/ST/STM32_USB_Device_Library/Class/HID/Src/usbd_hid.o
 .debug_macro   0x0001a590       0x6a Middlewares/ST/STM32_USB_Device_Library/Class/HID/Src/usbd_hid.o
 .debug_macro   0x0001a5fa      0x1c3 Middlewares/ST/STM32_USB_Device_Library/Class/HID/Src/usbd_hid.o
 .debug_macro   0x0001a7bd       0x6a Middlewares/ST/STM32_USB_Device_Library/Class/HID/Src/usbd_hid.o
 .debug_macro   0x0001a827      0x400 Middlewares/ST/STM32_USB_Device_Library/Core/Src/usbd_core.o
 .debug_macro   0x0001ac27      0x1c9 Middlewares/ST/STM32_USB_Device_Library/Core/Src/usbd_core.o
 .debug_macro   0x0001adf0      0x40a Middlewares/ST/STM32_USB_Device_Library/Core/Src/usbd_ctlreq.o
 .debug_macro   0x0001b1fa      0x406 Middlewares/ST/STM32_USB_Device_Library/Core/Src/usbd_ioreq.o
 .debug_macro   0x0001b600      0x395 Src/dcmi.o
 .debug_macro   0x0001b995      0x381 Src/dma.o
 .debug_macro   0x0001bd16      0x381 Src/dma2d.o
 .debug_macro   0x0001c097      0x38b Src/fmc.o
 .debug_macro   0x0001c422      0x381 Src/gpio.o
 .debug_macro   0x0001c7a3      0x38b Src/i2c.o
 .debug_macro   0x0001cb2e      0x43e Src/main.o
 .debug_macro   0x0001cf6c      0x377 Src/stm32f7xx_hal_msp.o
 .debug_macro   0x0001d2e3      0x377 Src/stm32f7xx_hal_timebase_TIM.o
 .debug_macro   0x0001d65a      0x381 Src/stm32f7xx_it.o
 .debug_macro   0x0001d9db      0x36e Src/system_stm32f7xx.o
 .debug_macro   0x0001dd49      0x38b Src/usart.o
 .debug_macro   0x0001e0d4      0x437 Src/usb_device.o
 .debug_macro   0x0001e50b      0x410 Src/usbd_conf.o
 .debug_macro   0x0001e91b      0x444 Src/usbd_desc.o

.debug_str      0x00000000    0x94d83
 .debug_str     0x00000000    0x8ce83 Drivers/STM32F7xx_HAL_Driver/Src/stm32f7xx_hal.o
                              0x8d204 (size before relaxing)
 .debug_str     0x0008ce83      0x475 Drivers/STM32F7xx_HAL_Driver/Src/stm32f7xx_hal_cortex.o
                              0x8d2d2 (size before relaxing)
 .debug_str     0x0008d2f8      0x72b Drivers/STM32F7xx_HAL_Driver/Src/stm32f7xx_hal_dcmi.o
                              0x8cf14 (size before relaxing)
 .debug_str     0x0008da23      0x2f3 Drivers/STM32F7xx_HAL_Driver/Src/stm32f7xx_hal_dma.o
                              0x8ccdf (size before relaxing)
 .debug_str     0x0008dd16      0x92c Drivers/STM32F7xx_HAL_Driver/Src/stm32f7xx_hal_dma2d.o
                              0x8d280 (size before relaxing)
 .debug_str     0x0008e642       0xae Drivers/STM32F7xx_HAL_Driver/Src/stm32f7xx_hal_dma_ex.o
                              0x8ca8e (size before relaxing)
 .debug_str     0x0008e6f0      0x2c4 Drivers/STM32F7xx_HAL_Driver/Src/stm32f7xx_hal_gpio.o
                              0x8cb5f (size before relaxing)
 .debug_str     0x0008e9b4      0xf1f Drivers/STM32F7xx_HAL_Driver/Src/stm32f7xx_hal_i2c.o
                              0x8d990 (size before relaxing)
 .debug_str     0x0008f8d3       0x3b Drivers/STM32F7xx_HAL_Driver/Src/stm32f7xx_hal_i2c_ex.o
                              0x8ccb3 (size before relaxing)
 .debug_str     0x0008f90e      0x969 Drivers/STM32F7xx_HAL_Driver/Src/stm32f7xx_hal_pcd.o
                              0x8d13f (size before relaxing)
 .debug_str     0x00090277       0x7a Drivers/STM32F7xx_HAL_Driver/Src/stm32f7xx_hal_pcd_ex.o
                              0x8cbb1 (size before relaxing)
 .debug_str     0x000902f1      0x391 Drivers/STM32F7xx_HAL_Driver/Src/stm32f7xx_hal_rcc.o
                              0x8ccd3 (size before relaxing)
 .debug_str     0x00090682      0x366 Drivers/STM32F7xx_HAL_Driver/Src/stm32f7xx_hal_rcc_ex.o
                              0x8cc0c (size before relaxing)
 .debug_str     0x000909e8      0x54d Drivers/STM32F7xx_HAL_Driver/Src/stm32f7xx_hal_sdram.o
                              0x8cf27 (size before relaxing)
 .debug_str     0x00090f35      0xbeb Drivers/STM32F7xx_HAL_Driver/Src/stm32f7xx_hal_tim.o
                              0x8d660 (size before relaxing)
 .debug_str     0x00091b20      0x4d5 Drivers/STM32F7xx_HAL_Driver/Src/stm32f7xx_hal_tim_ex.o
                              0x8d2a6 (size before relaxing)
 .debug_str     0x00091ff5      0x77a Drivers/STM32F7xx_HAL_Driver/Src/stm32f7xx_hal_uart.o
                              0x8d341 (size before relaxing)
 .debug_str     0x0009276f      0x394 Drivers/STM32F7xx_HAL_Driver/Src/stm32f7xx_ll_fmc.o
                              0x8cde1 (size before relaxing)
 .debug_str     0x00092b03      0x3e3 Drivers/STM32F7xx_HAL_Driver/Src/stm32f7xx_ll_usb.o
                              0x8d124 (size before relaxing)
 .debug_str     0x00092ee6     0x10a6 Middlewares/ST/STM32_USB_Device_Library/Class/HID/Src/usbd_hid.o
                              0x8d88d (size before relaxing)
 .debug_str     0x00093f8c      0x28d Middlewares/ST/STM32_USB_Device_Library/Core/Src/usbd_core.o
                              0x8d779 (size before relaxing)
 .debug_str     0x00094219      0x112 Middlewares/ST/STM32_USB_Device_Library/Core/Src/usbd_ctlreq.o
                              0x8d6ab (size before relaxing)
 .debug_str     0x0009432b       0x79 Middlewares/ST/STM32_USB_Device_Library/Core/Src/usbd_ioreq.o
                              0x8d5d8 (size before relaxing)
 .debug_str     0x000943a4       0x95 Src/dcmi.o
                              0x8cdfd (size before relaxing)
 .debug_str     0x00094439       0x19 Src/dma.o
                              0x8cdde (size before relaxing)
 .debug_str     0x00094452       0x5a Src/dma2d.o
                              0x8cae2 (size before relaxing)
 .debug_str     0x000944ac       0xac Src/fmc.o
                              0x8cdf3 (size before relaxing)
 .debug_str     0x00094558       0x1b Src/gpio.o
                              0x8c8d3 (size before relaxing)
 .debug_str     0x00094573       0x55 Src/i2c.o
                              0x8ce53 (size before relaxing)
 .debug_str     0x000945c8      0x193 Src/main.o
                              0x8e869 (size before relaxing)
 .debug_str     0x0009475b       0x27 Src/stm32f7xx_hal_msp.o
                              0x8cccd (size before relaxing)
 .debug_str     0x00094782       0x61 Src/stm32f7xx_hal_timebase_TIM.o
                              0x8d35f (size before relaxing)
 .debug_str     0x000947e3      0x10d Src/stm32f7xx_it.o
                              0x8d23e (size before relaxing)
 .debug_str     0x000948f0       0x5a Src/system_stm32f7xx.o
                              0x8b895 (size before relaxing)
 .debug_str     0x0009494a       0x3e Src/usart.o
                              0x8d400 (size before relaxing)
 .debug_str     0x00094988       0x29 Src/usb_device.o
                              0x8d6bb (size before relaxing)
 .debug_str     0x000949b1      0x171 Src/usbd_conf.o
                              0x8e633 (size before relaxing)
 .debug_str     0x00094b22      0x261 Src/usbd_desc.o
                              0x8d49d (size before relaxing)

.comment        0x00000000       0x6e
 .comment       0x00000000       0x6e Drivers/STM32F7xx_HAL_Driver/Src/stm32f7xx_hal.o
                                 0x6f (size before relaxing)
 .comment       0x0000006e       0x6f Drivers/STM32F7xx_HAL_Driver/Src/stm32f7xx_hal_cortex.o
 .comment       0x0000006e       0x6f Drivers/STM32F7xx_HAL_Driver/Src/stm32f7xx_hal_dcmi.o
 .comment       0x0000006e       0x6f Drivers/STM32F7xx_HAL_Driver/Src/stm32f7xx_hal_dma.o
 .comment       0x0000006e       0x6f Drivers/STM32F7xx_HAL_Driver/Src/stm32f7xx_hal_dma2d.o
 .comment       0x0000006e       0x6f Drivers/STM32F7xx_HAL_Driver/Src/stm32f7xx_hal_dma_ex.o
 .comment       0x0000006e       0x6f Drivers/STM32F7xx_HAL_Driver/Src/stm32f7xx_hal_gpio.o
 .comment       0x0000006e       0x6f Drivers/STM32F7xx_HAL_Driver/Src/stm32f7xx_hal_i2c.o
 .comment       0x0000006e       0x6f Drivers/STM32F7xx_HAL_Driver/Src/stm32f7xx_hal_i2c_ex.o
 .comment       0x0000006e       0x6f Drivers/STM32F7xx_HAL_Driver/Src/stm32f7xx_hal_pcd.o
 .comment       0x0000006e       0x6f Drivers/STM32F7xx_HAL_Driver/Src/stm32f7xx_hal_pcd_ex.o
 .comment       0x0000006e       0x6f Drivers/STM32F7xx_HAL_Driver/Src/stm32f7xx_hal_rcc.o
 .comment       0x0000006e       0x6f Drivers/STM32F7xx_HAL_Driver/Src/stm32f7xx_hal_rcc_ex.o
 .comment       0x0000006e       0x6f Drivers/STM32F7xx_HAL_Driver/Src/stm32f7xx_hal_sdram.o
 .comment       0x0000006e       0x6f Drivers/STM32F7xx_HAL_Driver/Src/stm32f7xx_hal_tim.o
 .comment       0x0000006e       0x6f Drivers/STM32F7xx_HAL_Driver/Src/stm32f7xx_hal_tim_ex.o
 .comment       0x0000006e       0x6f Drivers/STM32F7xx_HAL_Driver/Src/stm32f7xx_hal_uart.o
 .comment       0x0000006e       0x6f Drivers/STM32F7xx_HAL_Driver/Src/stm32f7xx_ll_fmc.o
 .comment       0x0000006e       0x6f Drivers/STM32F7xx_HAL_Driver/Src/stm32f7xx_ll_usb.o
 .comment       0x0000006e       0x6f Middlewares/ST/STM32_USB_Device_Library/Class/HID/Src/usbd_hid.o
 .comment       0x0000006e       0x6f Middlewares/ST/STM32_USB_Device_Library/Core/Src/usbd_core.o
 .comment       0x0000006e       0x6f Middlewares/ST/STM32_USB_Device_Library/Core/Src/usbd_ctlreq.o
 .comment       0x0000006e       0x6f Middlewares/ST/STM32_USB_Device_Library/Core/Src/usbd_ioreq.o
 .comment       0x0000006e       0x6f Src/dcmi.o
 .comment       0x0000006e       0x6f Src/dma.o
 .comment       0x0000006e       0x6f Src/dma2d.o
 .comment       0x0000006e       0x6f Src/fmc.o
 .comment       0x0000006e       0x6f Src/gpio.o
 .comment       0x0000006e       0x6f Src/i2c.o
 .comment       0x0000006e       0x6f Src/main.o
 .comment       0x0000006e       0x6f Src/stm32f7xx_hal_msp.o
 .comment       0x0000006e       0x6f Src/stm32f7xx_hal_timebase_TIM.o
 .comment       0x0000006e       0x6f Src/stm32f7xx_it.o
 .comment       0x0000006e       0x6f Src/system_stm32f7xx.o
 .comment       0x0000006e       0x6f Src/usart.o
 .comment       0x0000006e       0x6f Src/usb_device.o
 .comment       0x0000006e       0x6f Src/usbd_conf.o
 .comment       0x0000006e       0x6f Src/usbd_desc.o

.debug_frame    0x00000000     0x3de0
 .debug_frame   0x00000000      0x1a4 Drivers/STM32F7xx_HAL_Driver/Src/stm32f7xx_hal.o
 .debug_frame   0x000001a4      0x150 Drivers/STM32F7xx_HAL_Driver/Src/stm32f7xx_hal_cortex.o
 .debug_frame   0x000002f4      0x1ac Drivers/STM32F7xx_HAL_Driver/Src/stm32f7xx_hal_dcmi.o
 .debug_frame   0x000004a0      0x150 Drivers/STM32F7xx_HAL_Driver/Src/stm32f7xx_hal_dma.o
 .debug_frame   0x000005f0      0x2f0 Drivers/STM32F7xx_HAL_Driver/Src/stm32f7xx_hal_dma2d.o
 .debug_frame   0x000008e0       0x58 Drivers/STM32F7xx_HAL_Driver/Src/stm32f7xx_hal_dma_ex.o
 .debug_frame   0x00000938       0xd4 Drivers/STM32F7xx_HAL_Driver/Src/stm32f7xx_hal_gpio.o
 .debug_frame   0x00000a0c      0x79c Drivers/STM32F7xx_HAL_Driver/Src/stm32f7xx_hal_i2c.o
 .debug_frame   0x000011a8       0x40 Drivers/STM32F7xx_HAL_Driver/Src/stm32f7xx_hal_i2c_ex.o
 .debug_frame   0x000011e8      0x2c0 Drivers/STM32F7xx_HAL_Driver/Src/stm32f7xx_hal_pcd.o
 .debug_frame   0x000014a8       0x6c Drivers/STM32F7xx_HAL_Driver/Src/stm32f7xx_hal_pcd_ex.o
 .debug_frame   0x00001514      0x138 Drivers/STM32F7xx_HAL_Driver/Src/stm32f7xx_hal_rcc.o
 .debug_frame   0x0000164c       0x6c Drivers/STM32F7xx_HAL_Driver/Src/stm32f7xx_hal_rcc_ex.o
 .debug_frame   0x000016b8      0x228 Drivers/STM32F7xx_HAL_Driver/Src/stm32f7xx_hal_sdram.o
 .debug_frame   0x000018e0      0x87c Drivers/STM32F7xx_HAL_Driver/Src/stm32f7xx_hal_tim.o
 .debug_frame   0x0000215c      0x3c8 Drivers/STM32F7xx_HAL_Driver/Src/stm32f7xx_hal_tim_ex.o
 .debug_frame   0x00002524      0x41c Drivers/STM32F7xx_HAL_Driver/Src/stm32f7xx_hal_uart.o
 .debug_frame   0x00002940      0x1ec Drivers/STM32F7xx_HAL_Driver/Src/stm32f7xx_ll_fmc.o
 .debug_frame   0x00002b2c      0x484 Drivers/STM32F7xx_HAL_Driver/Src/stm32f7xx_ll_usb.o
 .debug_frame   0x00002fb0       0xb4 Middlewares/ST/STM32_USB_Device_Library/Class/HID/Src/usbd_hid.o
 .debug_frame   0x00003064      0x1c0 Middlewares/ST/STM32_USB_Device_Library/Core/Src/usbd_core.o
 .debug_frame   0x00003224       0xb0 Middlewares/ST/STM32_USB_Device_Library/Core/Src/usbd_ctlreq.o
 .debug_frame   0x000032d4       0xb8 Middlewares/ST/STM32_USB_Device_Library/Core/Src/usbd_ioreq.o
 .debug_frame   0x0000338c       0x84 Src/dcmi.o
 .debug_frame   0x00003410       0x28 Src/dma.o
 .debug_frame   0x00003438       0x58 Src/dma2d.o
 .debug_frame   0x00003490       0x70 Src/fmc.o
 .debug_frame   0x00003500       0x3c Src/gpio.o
 .debug_frame   0x0000353c       0x58 Src/i2c.o
 .debug_frame   0x00003594       0xfc Src/main.o
 .debug_frame   0x00003690       0x2c Src/stm32f7xx_hal_msp.o
 .debug_frame   0x000036bc       0x50 Src/stm32f7xx_hal_timebase_TIM.o
 .debug_frame   0x0000370c       0xf0 Src/stm32f7xx_it.o
 .debug_frame   0x000037fc       0x30 Src/system_stm32f7xx.o
 .debug_frame   0x0000382c       0x8c Src/usart.o
 .debug_frame   0x000038b8       0x2c Src/usb_device.o
 .debug_frame   0x000038e4      0x28c Src/usbd_conf.o
 .debug_frame   0x00003b70       0xb8 Src/usbd_desc.o
 .debug_frame   0x00003c28       0x2c /home/adam/eclipse/plugins/fr.ac6.mcu.externaltools.arm-none.linux64_1.13.1.201703061524/tools/compiler/bin/../lib/gcc/arm-none-eabi/5.4.1/../../../../arm-none-eabi/lib/armv7e-m/fpu/fpv5-sp-d16/libc_nano.a(lib_a-init.o)
 .debug_frame   0x00003c54       0x30 /home/adam/eclipse/plugins/fr.ac6.mcu.externaltools.arm-none.linux64_1.13.1.201703061524/tools/compiler/bin/../lib/gcc/arm-none-eabi/5.4.1/../../../../arm-none-eabi/lib/armv7e-m/fpu/fpv5-sp-d16/libc_nano.a(lib_a-malloc.o)
 .debug_frame   0x00003c84       0x38 /home/adam/eclipse/plugins/fr.ac6.mcu.externaltools.arm-none.linux64_1.13.1.201703061524/tools/compiler/bin/../lib/gcc/arm-none-eabi/5.4.1/../../../../arm-none-eabi/lib/armv7e-m/fpu/fpv5-sp-d16/libc_nano.a(lib_a-nano-freer.o)
 .debug_frame   0x00003cbc       0x2c /home/adam/eclipse/plugins/fr.ac6.mcu.externaltools.arm-none.linux64_1.13.1.201703061524/tools/compiler/bin/../lib/gcc/arm-none-eabi/5.4.1/../../../../arm-none-eabi/lib/armv7e-m/fpu/fpv5-sp-d16/libc_nano.a(lib_a-nano-mallocr.o)
 .debug_frame   0x00003ce8       0x2c /home/adam/eclipse/plugins/fr.ac6.mcu.externaltools.arm-none.linux64_1.13.1.201703061524/tools/compiler/bin/../lib/gcc/arm-none-eabi/5.4.1/../../../../arm-none-eabi/lib/armv7e-m/fpu/fpv5-sp-d16/libc_nano.a(lib_a-sbrkr.o)
 .debug_frame   0x00003d14       0x20 /home/adam/eclipse/plugins/fr.ac6.mcu.externaltools.arm-none.linux64_1.13.1.201703061524/tools/compiler/bin/../lib/gcc/arm-none-eabi/5.4.1/../../../../arm-none-eabi/lib/armv7e-m/fpu/fpv5-sp-d16/libc_nano.a(lib_a-strcpy.o)
 .debug_frame   0x00003d34       0x30 /home/adam/eclipse/plugins/fr.ac6.mcu.externaltools.arm-none.linux64_1.13.1.201703061524/tools/compiler/bin/../lib/gcc/arm-none-eabi/5.4.1/../../../../arm-none-eabi/lib/armv7e-m/fpu/fpv5-sp-d16/libc_nano.a(lib_a-mlock.o)
 .debug_frame   0x00003d64       0x5c /home/adam/eclipse/plugins/fr.ac6.mcu.externaltools.arm-none.linux64_1.13.1.201703061524/tools/compiler/bin/../lib/gcc/arm-none-eabi/5.4.1/../../../../arm-none-eabi/lib/armv7e-m/fpu/fpv5-sp-d16/libc_nano.a(lib_a-reent.o)
 .debug_frame   0x00003dc0       0x20 /home/adam/eclipse/plugins/fr.ac6.mcu.externaltools.arm-none.linux64_1.13.1.201703061524/tools/compiler/bin/../lib/gcc/arm-none-eabi/5.4.1/../../../../arm-none-eabi/lib/armv7e-m/fpu/fpv5-sp-d16/libnosys.a(sbrk.o)
